:020000040800F2
:10000000182C002099010008B7260008CD1D000813
:10001000B5260008D7020008613D00080000000076
:1000200000000000000000000000000001010008C6
:10003000570400080000000045010008513900087D
:10004000B3010008B3010008B3010008B3010008C0
:10005000B3010008B3010008B3010008B3010008B0
:10006000B3010008B3010008B3010008B3010008A0
:10007000B3010008B3010008B3010008B301000890
:10008000B3010008B3010008B3010008B301000880
:10009000B3010008B3010008B3010008B301000870
:1000A000B3010008B3010008B3010008B301000860
:1000B000B3010008B3010008FD390008B3010008CE
:1000C000B3010008B3010008B3010008B301000840
:1000D000B3010008B3010008B3010008B301000830
:1000E00059040008B3010008B3010008DFF80CD080
:1000F00000F088F800480047013E0008182C002056
:10010000224B19680868B0E8F00F80F30988BFF344
:100110006F8F4FF0000080F311884EF00D0E704786
:100120000000000006480068006880F3088862B696
:1001300061B6BFF34F8FBFF36F8F00DF00BF00BF0B
:1001400008ED00E0EFF30980BFF36F8F0F4B1A68E3
:1001500020E9F00F106008B54FF0500080F31188CF
:10016000BFF34F8FBFF36F8F06F0CCF84FF0000056
:1001700080F31188BDE8084019680868B0E8F00FFE
:1001800080F30988BFF36F8F704700BFD004002051
:10019000EFF3058070470000064880470648004797
:1001A000FEE7FEE7FEE7FEE7FEE7FEE7FEE7FEE727
:1001B000FEE7FEE7F9390008ED00000840EA010318
:1001C0009B0703D009E008C9121F08C0042AFAD20D
:1001D00003E011F8013B00F8013B521EF9D27047D1
:1001E000D2B201E000F8012B491EFBD27047002279
:1001F000F6E710B513460A4604461946FFF7F0FF26
:10020000204610BD064C074D06E0E06840F00103B3
:1002100094E8070098471034AC42F6D3FFF76AFF22
:10022000A0EE0008C0EE000870B58C1810F8015B55
:1002300015F0070301D110F8013B2A1106D110F87F
:10024000012B03E010F8016B01F8016B5B1EF9D183
:100250002B0705D40023521E0DD401F8013BFAE709
:1002600010F8013BCB1A921C03E013F8015B01F874
:10027000015B521EF9D5A142D8D3002070BD000009
:1002800070B5044600688168C943C90717D1816801
:1002900021F00101816000F09BFB05460AE000BFF0
:1002A00000F096FB401B022804D920688068C043F8
:1002B000C00706D020688068C043C007F0D0002087
:1002C00070BDA06A40F01000A062E06A40F001003A
:1002D000E062012070BDFEE711480189491C89B226
:1002E000018109291AD9002101811630C288521CC6
:1002F00092B2C280092A11D98288521C92B282809D
:10030000C180052A0AD94288521C92B2428081805B
:10031000092A03D90288521C0280418070470000DC
:10032000EC030020012000F00DB8000010B5022100
:10033000034800F043FB012800D0002010BD00005E
:1003400000080140044B08B1012200E00022022114
:10035000184600F038BB0000000801402DE9F05FAE
:1003600082468B460020FFF7EDFF142003F065FD69
:10037000012202211C4800F026FB3C2005F00CFD68
:10038000FFF7D4FF4FF0FF3958BB4FF47A74214682
:10039000012000F04EF820BB2146002000F049F873
:1003A000F8B900F023F8C5B200F020F800F0FF081B
:1003B00000F01CF8C4B200F019F8C7B200F016F84B
:1003C000C6B20120FFF7BEFF05EB08002044384409
:1003D000B04206D1CAF800500020CBF80040BDE87A
:1003E000F09F4846FBE70000000801402DE9F0417E
:1003F00000242546671E4FF47A763146012000F02E
:1004000018F870B9282005F0C7FC6400FFF78EFFCC
:10041000012801D144F001043146002000F009F820
:1004200010B13846BDE8F0816D1C082DE5DB204693
:10043000F8E770B50C46054608E0FFF777FFA842DD
:1004400001D1002070BD012005F0A6FC641EF4D28D
:100450004FF0FF3070BD704710B54FF4806000F072
:10046000B1F94FF4006000F0ADF9BDE810404FF471
:10047000805000F0A7B972B6FEE70000F8B500247E
:10048000009490F824202546012A12D0012280F8F9
:1004900024204A681F23072A0DD20668776B521E54
:1004A00002EB820293409F430B6893401F437763A4
:1004B00019E00220F8BD06680D2A0AD2376BD21F58
:1004C00002EB820293409F430B6893401F433763C4
:1004D00009E0F76A0D3A02EB820293409F430B68F2
:1004E00093401F43F7620A68072306680A2A0AD363
:1004F000F7680A3A02EB420293409F438B689340AD
:100500001F43F76008E0376902EB420293409F43C4
:100510008B6893401F4337610A68102A01D0112A63
:1005200020D1124B02689A4217D193681B0219D44A
:10053000936843F4000393600968102912D10C49B1
:100540000C4A0968B1FBF2F101EB8101490000E0BE
:10055000491E00910029FBD104E0816A41F020018D
:100560008162012480F824502046F8BD0024014017
:100570003800002040420F002DE9F0414FF0000705
:1005800004003D467ED0A06A002628B9E66284F8C1
:100590002460204600F07EF82046FFF771FEA16A35
:1005A000C90600D420B1A06A40F01000A06269E042
:1005B000A16A21F4885141F00201A1626268E169F7
:1005C000237B0A4347EA43010A43A1684FF480773B
:1005D000B94209D0012907D05FF0000194F814C096
:1005E000BCF1010F02D00AE03946F7E7F3B1A36A84
:1005F00043F02003A362E36A43F00103E36223684C
:10060000D3F804C02CF4694C4CEA010CC3F804C0C4
:1006100021688B68DFF870C003EA0C0313438B601A
:10062000A168B9420BD0012909D00CE0DFF85CC009
:10063000A3690CEB43330B4343F40061DFE7218AEA
:100640000D05A5F580152168CB6A23F470032B43B3
:10065000CB62216889680E4B1940914208D1E6624D
:10066000A16A21F0020141F00101A162BDE8F0811F
:10067000A06A20F0020040F01000A062E06A40F0A2
:100680000100E0620120F1E7FDF7E1FF00E0FFFF7C
:10069000FE0E1FFF00B585B000210091019102916F
:1006A000039100680E49884218D10E48816941F4CF
:1006B00000718161816901F400710491816941F0E7
:1006C000040181618069694600F0040004900820FB
:1006D000009003200190044800F080F805B000BDB0
:1006E00000240140001002400008014070B504469B
:1006F00000F06EF90546601C02D0044800780444FE
:1007000000F066F9401BA042FAD370BD2C00002017
:10071000F8B5294A01462748566A294A01277C0329
:10072000264D0068136841F28832B1F5006F05D09C
:10073000B1F5806F29D0022932D009E04FF0020CC8
:100740004FEA020E0CF1010CF445FBDB012B17D034
:10075000012914D10221491C9142FCDB012B0ED14D
:1007600000280CD18DF8037000231A4669463046E4
:1007700005F09AFF00222146284600F024F9F8BD32
:100780000028FCD18DF80070EEE70221491C91424F
:10079000FCDB012BF3D10028F1D18DF80170E3E7E8
:1007A000491C9142FCDB012BE9D10028E7D18DF8EF
:1007B0000270D9E7E803002000000020001001408B
:1007C0009C030020044910B50A68024202D0086068
:1007D000FFF79EFF10BD0000140401402DE9F84F03
:1007E000DFF8B8910024A9F1040B23460F2709F183
:1007F000040AABF1040EC9E00125A5402A40AA4233
:100800007DD1674ED1F804C0ACEB0608B44532D0B8
:1008100014DCBCF1030F3AD009DCBCF1000F2AD084
:10082000BCF1010F1CD0BCF1020F31D11DE0BCF1B5
:10083000110F17D0BCF1120F2AD119E0B8F5881F9B
:1008400019D006DCB8F5803F15D0B8F5801F1FD150
:1008500011E0B8F5001F0ED0B8F5041F18D10AE05A
:10086000CB6815E0CB681B1D12E0CB6808330FE0A6
:10087000CB680C330CE08B682BB1012B4FF00803D5
:1008800003D0456104E0042302E0056100E0002399
:10089000FF2A01D8064601E000F104064FEA84056C
:1008A00001D9A5F12005D6F8008007FA05FC28EA51
:1008B0000C0803FA05F548EA0508C6F800804D68FB
:1008C000ED0062D5374DAE6946F00106AE61AD6907
:1008D00024F0030605F001050095334D06EB050CE9
:1008E000DCF80850A607360F07FA06F825EA0805CF
:1008F000DFF8B880404503D14FF0000817E044E02E
:10090000DFF8AC80404502D14FF001080FE0DFF87E
:10091000A480404502D14FF0020808E0DFF898803B
:10092000404502D14FF0030801E04FF0040808FAF7
:1009300006F848EA0508CCF808804D68D9F8006048
:10094000ED024D4601D5164300E096432E604D68FA
:10095000DAF80060AD02554601D5164300E0964333
:100960002E604D68DBF80060AD035D4601D516438F
:1009700000E096432E604D68DEF80060ED0375469A
:1009800001D5164300E096432E60641C0D682A468C
:10099000E5407FF431AFBDE8F88F00000804014066
:1009A000000011100010024000000140000801404A
:1009B000000C014000100140001401408068084014
:1009C00000D0012070470AB1016170470904FBE7BC
:1009D00001488068704700002C00002070B50400BA
:1009E00025D094F83D00002520B984F83C502046DD
:1009F00000F04EF9242084F83D002068016821F0C1
:100A0000010101602068016841F400410160206833
:100A1000016821F40041016000F0E0FB4D4A61688B
:100A2000914201D84C4900E04C49884201D2012052
:100A300070BD4B492368B0FBF1F15E6826F03F06BC
:100A40000E435E606368934206D94FF49673594330
:100A50004FF47A73B1FBF3F12368491C1E6A26F048
:100A60003F06314319626168914210D84900401E27
:100A7000B0FBF1F2521CC2F30B02042A01D2042093
:100A800022E0B0FBF1F0401CC0F30B001CE0A268B8
:100A9000F2B301EBC10303EB0116431EB3FBF6F304
:100AA0005B1C43F480431B0549D092B301EBC102A8
:100AB00002EB0111401EB0FBF1F0401CC0F30B0033
:100AC00040F4804040F400402168CA694CF6FF734E
:100AD0009A431043C861D4E90710014320680268B3
:100AE00022F0C00211430160D4E9030101432068F0
:100AF000826848F2FF339A4311438160D4E90501CB
:100B000008432168CA6822F0FF021043C86001E070
:100B10000EE016E02068016841F0010101602564E3
:100B2000202084F83D00256384F83E50002070BDED
:100B300001EB4106431EB3FBF6F35B1CB3E7012058
:100B4000C2E701EB4101401EB0FBF1F0401CC0F3D5
:100B50000B00B7E7A086010080841E0000093D005D
:100B600040420F002DE9F84F1F4690468A46044642
:100B7000DDF82890FFF72CFF054694F83D0020286B
:100B80007FD11923012240492046009501F0B0F998
:100B9000002876D194F83C00012872D0012084F816
:100BA0003C0020680168C90703D1016841F00101D8
:100BB00001602068016821F400610160212084F84F
:100BC0003D00102084F83E0000262664C4F82480EE
:100BD0006785608D20852D48E0622B464A46514648
:100BE000204601F00BF990B92068416980690090B6
:100BF00036E02A464946204601F020FA50B1206CE2
:100C0000042804D12068016841F4007101600120CA
:100C1000BDE8F88F606A216800780861606A401C4E
:100C20006062618D491E6185218D491E89B22185D1
:100C300022685369DB435B070BD451B10078106124
:100C4000606A401C6062608D401E6085208D401E81
:100C500020852A464946204601F01EF90028CED1BB
:100C6000208D0028C5D154F83D0B016841F4007176
:100C70000160202004F81E09E67766770020C7E7A8
:100C8000FFE70220C4E70000020010000000FFFFA1
:100C900010B586B000210091019102910391006886
:100CA0000F4988421AD10F4CA06940F00800A0619A
:100CB000A069694600F008000490C020009012204E
:100CC0000190032003900848FFF788FDE06940F495
:100CD0000010E061E06900F40010049006B010BD5F
:100CE0000054004000100240000C0140024881689E
:100CF00002781144816070472C000020074810B52D
:100D0000016841F010010160032000F0A7F80F20F6
:100D100000F006F800F050F8002010BD002002405E
:100D200030B505461F4887B0C16941F00401C16173
:100D3000C06906A900F00400009001A800F02EFA96
:100D40000498B0B100F04AFA40001749174AB0FBC6
:100D5000F1F11748491E0260416040F2E73200217C
:100D6000C0E903218160816100F000FD040003D02F
:100D700015E000F033FAE8E70D4800F043FD040009
:100D80000DD11E2000F03CF8102D07D2002229467C
:100D90001E2000F043F80748056000E0012407B07A
:100DA000204630BD0010024040420F0000080040C5
:100DB000340A0020300000200F4808B5816941F056
:100DC00001018161816901F001010091C16941F076
:100DD0008051C161C069002200F0805000900F2155
:100DE000901E00F01BF80548416821F0E06141F0D9
:100DF0000071416008BD0000001002400000014089
:100E0000002809DB00F01F02012191404009800009
:100E100000F1E020C0F8001170470000F0B40E4B64
:100E20001B680C46C3F30223C3F10705042D00D948
:100E30000425191D072901D2002300E0DB1E01262D
:100E400006FA05F1491E214099409E40761E164043
:100E50003143F0BC02F085BF0CED00E0064900F024
:100E6000070208684FF6FF03184040EA0220034AD1
:100E700010430860704700000CED00E00000FA0528
:100E80002DE9F04186B0040004D094F8A9020025B1
:100E900020B108E0012006B0BDE8F08184F8A85236
:100EA000204600F05BF8032084F8A902206802F0D5
:100EB0004EFF04F11001142288466846FFF77EF9C0
:100EC00094E80F0002F036FF0227D0BB0021206813
:100ED00002F044FF002001260EE000BF00EB80017D
:100EE00004EBC10181F8296001F8280F401CCD7086
:100EF0000D614D61C0B28D6161688142EED8002004
:100F000012E000BF00EB800104EBC10181F86951E0
:100F100081F8680181F86B51C1F87851C1F87C51B2
:100F2000401CC0B2C1F8805161688142EAD81422E5
:100F300041466846FFF742F994E80F0002F0FEFED2
:100F400010B184F8A972A5E784F8245084F8A96246
:100F5000206802F0F1FE00209DE7000008B500685F
:100F60000649884208D10648C16941F40001C161BF
:100F7000C06900F40000009008BD0000005C004063
:100F8000001002402DE9F84305460078354CC007B3
:100F900054D0E0690026C00008D4E06940F08050D9
:100FA000E061E069012600F0805000902E48016861
:100FB000C90512D40168804641F480710160FFF7D1
:100FC00007FD074605E000BFFFF702FDC01B6428D0
:100FD00023D8D8F80000C005F6D5206A10F4407078
:100FE00021D0A98801F4407181421CD0206A1F4998
:100FF000012220F440700A6000220A602062C007CB
:1010000011D0FFF7E5FC074641F2883808E000BF41
:10101000FFF7DEFCC11B414502D90320BDE8F88380
:10102000206A8007F4D5206A696820F4407008437C
:1010300020621EB1E06920F08050E06128788007CE
:1010400005D56068A96820F44040084360602878AE
:10105000C00605D56068E96820F480000843606038
:101060000020DBE7001002400070004040044242D4
:101070002DE9F0470F46050061D0434E306800F07F
:101080000700B84209D2306820F0070038433060CA
:10109000306800F00700B84251D128683B4C810706
:1010A00012D5400703D5606840F4E060606028789E
:1010B000000703D5606840F4605060606068A9680C
:1010C00020F0F000084360602878C00728D06868E6
:1010D000012810D02168022810D0890700292EDAB3
:1010E000616821F0030101436160FFF771FC8046F4
:1010F00041F288390DE021688903EFE78901EDE7C6
:10110000FFF766FCA0EB0801494502D90320BDE8C2
:10111000F0876068696800F00C00B0EB810FEFD1D8
:10112000306800F00700B8420BD9306820F00700A3
:1011300038433060306800F00700B84201D0012029
:10114000E5E72878400705D56068E96820F4E060A5
:10115000084360602878000706D56068296920F494
:10116000605040EAC100606000F058F86168084AC9
:10117000C1F30311515CC840064908600648006885
:10118000FFF7CEFD0020C2E7002002400010024021
:10119000966D000838000020300000200F22026009
:1011A0000C4A536803F003034360536803F0F003F1
:1011B0008360536803F4E063C36052684FF4E063F4
:1011C00003EAD20202610448006800F007000860E8
:1011D000704700000010024000200240044805490A
:1011E00000684968044AC1F30221515CC840704755
:1011F0003800002000100240A66D00080448054990
:1012000000684968044AC1F3C221515CC840704774
:101210003800002000100240A66D00080E4A5168F8
:101220000E4801F00C03042B11D0082B0FD10C48F1
:10123000C1F38343C903C05C0AD55168084AC1F3AE
:101240004041921E515C054A5043B0FBF1F070479B
:1012500004494843704700000010024000127A0021
:10126000866D000800093D002DE9F84F040070D09C
:101270002078C04DC00749D06868C0F381000128BC
:1012800007D06868C0F38100022809D16868C003EC
:1012900006D52868800339D560680028E7D035E096
:1012A0006068B0F5803F0BD010B1B0F5A02F11D021
:1012B000286820F480302860286820F4802002E02C
:1012C000286840F480302860606890B1FFF780FBA8
:1012D00006460AE0286840F480202860F0E700BF56
:1012E000FFF776FB801B642873D828688003F7D546
:1012F0000CE0FFF76DFB064605E000BFFFF768FB5B
:10130000801B6428F0D828688003F7D420789A4E90
:1013100080074FF001094FF0000839D5686810F0D8
:101320000C0F07D06868C0F38100022809D16868F3
:10133000C00306D42868800714D52069012808D185
:1013400010E02069B0B1C6F80090FFF741FB0746F6
:1013500005E00AE1FFF73CFBC01B0228C4D828685F
:101360008007F7D52868616920F0F80040EAC100DD
:1013700028600DE0C6F80080FFF72AFB074604E06E
:10138000FFF726FBC01B022823D828688007F7D464
:10139000207800072CD57948A169D9B1C0F8009010
:1013A000FFF716FB074604E0FFF712FBC01B0228FD
:1013B0000FD8686A8007F7D571484FF4FA51006872
:1013C000B0FBF1F0009000BF0098411E0091FAD2EE
:1013D0000EE080E0C0F80080FFF7FAFA074604E06C
:1013E000FFF7F6FAC01B022875D8686A8007F7D4A1
:1013F0002078400760D5E8690027C00008D4E86974
:1014000040F08050E861E869012700F080500090CA
:101410005C480168C90513D40168834641F48071B2
:101420000160FFF7D5FA824606E000BFFFF7D0FA69
:10143000A0EB0A0064284ED8DBF80000C005F5D503
:10144000E06801280AD008B1052813D0286A20F0E6
:1014500001002862286A20F0040002E0286A40F0B7
:1014600001002862E06841F2883B98B1FFF7B0FACA
:1014700082460BE0286A40F004002862EEE700BFD5
:10148000FFF7A6FAA0EB0A0159455AD8286A800747
:10149000F6D50CE0FFF79CFA824605E0FFF798FAD4
:1014A000A0EB0A0159454CD8286A8007F6D41FB131
:1014B000E86920F08050E861E06988B36968C1F3A9
:1014C0008101022944D00228C6F8608004D0FFF7C9
:1014D0007FFA044638E034E0FFF77AFA074604E082
:1014E000FFF776FAC01B02282BD828688001F7D4B2
:1014F000206AB0F5803F05D16868A16820F400300B
:1015000008436860D4E908010843696821F474114C
:1015100008436860C6F86090FFF75AFA044606E090
:1015200025E000BFFFF754FA001B022809D82868FD
:101530008001F7D51BE000BFFFF74AFA001B022825
:1015400002D90320BDE8F88F28688001F4D40EE0AA
:101550000128F7D06868226A00F48031914204D1F2
:10156000616A00F47010884201D00120EAE700208F
:10157000E8E70000001002400000424280044242BE
:10158000380000200070004070B5040009D0606A87
:10159000002540B125616561A56294F8510040B114
:1015A0000CE0012070BD6068B0F5827FF4D0E56189
:1015B000F2E784F85050204600F040F8022084F80A
:1015C00051002068016821F040010160A088218954
:1015D00000F4827001F404410843A18901F4006120
:1015E0000843217C01F002010843217D01F0010143
:1015F0000843218B01F400710843217F01F0380179
:10160000084394F8201001F080010843218D01F473
:101610000051084321680860A069042101EA1040D4
:10162000216848602068C16921F40061C161656575
:10163000012084F85100002070BD000030B585B055
:101640000024009401940294039400681449884291
:1016500023D11448816941F480518161816901F489
:1016600080510491816941F00401816180690E4DCE
:1016700000F004000490A0200090022001900320BC
:10168000039069462846FFF7A9F84020CDE90004F9
:10169000694628460294FFF7A1F805B030BD000066
:1016A00000300140001002400008014070477047C0
:1016B00010B590F83C20012A22D0012280F83C206D
:1016C000CA688C6822F4407222434C6822F480621B
:1016D00022430C6822F4006222430C6922F48052F7
:1016E00022434C6922F400522243C969002322F4A8
:1016F00080420A4301684A6480F83C30002010BDF3
:10170000022010BD70B590F83C20012A26D001249B
:1017100080F83C40022280F83D2003685A689D68AA
:1017200022F070060A6832435A600D4B02689A42F2
:1017300008D0B2F1804F05D00A4B9A4202D00A4B32
:101740009A4204D1496825F080031943916080F8DA
:101750003D40002180F83C10084670BD022070BD5D
:10176000002C0140000400400008004010B50400B7
:1017700003D094F83D0010B107E0012010BD002017
:1017800084F83C00204600F01FF8022084F83D0059
:10179000211D206802F038F9012084F8460084F801
:1017A0003E0084F83F0084F8400084F8410084F84B
:1017B000420084F8430084F8440084F8450084F82B
:1017C0003D00002010BD000008B50C4A01680C481F
:1017D000914207D1816941F400618161806900F41F
:1017E000006009E0B1F1804F07D1C16941F001010A
:1017F000C161C06900F00100009008BD002C0140EB
:101800000010024090F83D10012901D001207047DE
:10181000022180F83D100168CA6842F00102CA60E6
:1018200000680B49884208D0B0F1804F05D00949C3
:10183000884202D00849884204D1816801F007013A
:10184000062903D0016841F00101016000207047C2
:10185000002C0140000400400008004070B5044620
:1018600090F83C000025012817D0012684F83C6040
:10187000022084F83D002068826822F0770222F47A
:101880007F4282600868502838D00DDC20284FD075
:1018900005DC90B3102811D14AE0022070BD302839
:1018A00046D040280AD13BE060282FD070280DD0C8
:1018B000B0F5805F03D0B0F5005F12D0012584F849
:1018C0003D60002084F83C00284670BDCB68D1E91B
:1018D0000121206802F0CEF82068816841F077018C
:1018E00009E0CB68D1E90121206802F0C3F8206843
:1018F000816841F480418160E1E719E0CA68496884
:10190000206802F06BF95021206806E0CA68496837
:10191000206802F074F96021206802F0B5F8CEE783
:10192000CA684968206802F059F940212068F4E744
:10193000226801461046F0E7704770B5044600681B
:1019400001694FF00005C943890715D4C168C9432F
:10195000890711D4E91E0161012020772068806980
:101960008007204602D0FFF7E7FF04E000F00EF901
:10197000204600F0B3F9257720680169C94349077B
:1019800017D4C168C943490713D46FF0040101613A
:10199000022020772068806910F4407F204602D022
:1019A000FFF7CAFF04E000F0F1F8204600F096F9D6
:1019B000257720680169C943090716D4C168C9435E
:1019C000090712D46FF00801016104202077206814
:1019D000C0698007204602D0FFF7AEFF04E000F0A8
:1019E000D5F8204600F07AF9257720680169C943C7
:1019F000C90617D4C168C943C90613D46FF01001D2
:101A00000161082020772068C06910F4407F2046DB
:101A100002D0FFF791FF04E000F0B8F8204600F094
:101A20005DF9257720680169C943C90708D1C168F4
:101A3000C943C90704D1891E0161204600F050F94D
:101A400020680169C943090609D4C168C943090668
:101A500005D46FF0800101612046FFF727FE206862
:101A60000169C943490609D4C168C943490605D477
:101A70006FF040010161204600F03CF920680169E7
:101A8000C94389060BD4C168C943890607D46FF0DE
:101A9000200101612046BDE87040FFF708BE70BD1F
:101AA00070B586B000210091019102910391006808
:101AB000304B31490224314A984211D1886940F0B3
:101AC000040088618869039400F00400049088157C
:101AD000CDE9000469461046FEF780FE06B070BDF1
:101AE000274E284DB0F1804F1BD0274A9042F5D1A8
:101AF000886940F0080088618869694600F008003C
:101B000004901020CDE9000430460394FEF766FEF1
:101B1000686820F4406040F0E06040F40060686075
:101B2000DCE7886940F004008861886900F00400FF
:101B30000490886940F0080088618869694600F06F
:101B40000800049048F20400CDE900041046039414
:101B5000FEF744FE0820CDE90004694630460394B0
:101B6000FEF73CFE686820F4407040F0E06040F40E
:101B70008070D4E7002C01400010024000080140B2
:101B8000000C01400000014000040040704770B5A7
:101B9000044690F83C0000260D4601280FD0012095
:101BA00084F83C006AB1042A1DD0082A2FD00C2AE0
:101BB0003FD00126002084F83C00304670BD022052
:101BC00070BD206801F068FF2068816941F008015C
:101BD00081612068816921F0040181612068816947
:101BE0002A69114311E0206801F07EFF20688169B5
:101BF00041F4006181612068816921F48061816123
:101C0000206881692A6941EA02218161D2E720685E
:101C100001F096FF2068C16941F00801C1612068A8
:101C2000C16921F00401C1612068C1692A691143B9
:101C300011E0206801F0B0FF2068C16941F4006143
:101C4000C1612068C16921F48061C1612068C169F6
:101C50002A6941EA0221C161ACE710B5040003D052
:101C600094F83D0010B107E0012010BD002084F879
:101C70003C00204600F01EF8022084F83D00211DA3
:101C8000206801F0C1FE012084F8460084F83E007F
:101C900084F83F0084F8400084F8410084F8420052
:101CA00084F8430084F8440084F8450084F83D003B
:101CB000002010BD08B500680649884208D10648D2
:101CC000C16941F00201C161C06900F002000090E9
:101CD00008BD0000000400400010024070470000F2
:101CE00000680349884201D1FFF700B8704700003F
:101CF00000080040704770B5040004D094F841001B
:101D0000002510B106E0012070BD84F84050204647
:101D100000F024F8242084F841002068C16821F4F0
:101D20000051C160204601F0A9FF2068016921F43B
:101D3000904101612068416921F02A0141612068D8
:101D4000C16841F40051C1606564202084F84100FD
:101D500084F842006563002070BD000030B585B096
:101D6000002400940194029403940068144988426A
:101D700024D11448816941F480418161816901F471
:101D800080410491816941F00401816180690E4DB7
:101D900000F0040004904FF40070009002200190C5
:101DA0000320039069462846FEF718FD2815CDE963
:101DB0000004694628460294FEF710FD05B030BDC8
:101DC000003801400010024000080140FEE70168B1
:101DD0004A69D24352050FD46FF480624A610021F0
:101DE00040F8301F202242738173026942F00402DE
:101DF000026101730120704700207047F8B5044666
:101E0000C06A1E460D461746082807D0012805D08F
:101E100010F5803F02D0206B122804D120680168A1
:101E200041F480710160134600224FF001112046F9
:101E3000009600F05DF840B120680068C00502D54A
:101E40004FF4007020640320F8BD2069B0F5804F86
:101E50000ED00620216800EAD51040F0F00008619D
:101E600033463A460B49204600F08AF878B902E03A
:101E700005F0FE0000E0E8B221680861054933463C
:101E80003A46891F204600F07BF80028DCD001206C
:101E9000F8BD00000800010070B516460D46044666
:101EA0001EE02046FFF793FF08B1012070BD681CBB
:101EB00016D0FEF78DFD801BA84200D885B920689A
:101EC0004069C04340070BD5002044F8300F202163
:101ED0006173A073216941F0200121612073E4E75F
:101EE00020684069C0434007DBD4002070BD00007B
:101EF0002DE9F047984617460D460446C1F30746BC
:101F0000DDF820902AE000BFB8F1FF3F26D0FEF7B1
:101F10005FFDA0EB0901414502D8B8F1000F1DD1CA
:101F20002068012E16D0806925EA00000004000C0C
:101F300012D00020B84211D1002044F8300F2021E7
:101F40006173A073216941F0200121612073012098
:101F5000BDE8F0874069E7E70120EBE72068012E44
:101F60000AD0806925EA00000004000C06D0002099
:101F7000B842C9D00020EBE74069F3E70120F7E75A
:101F80002DE9F047984616460D4604464FF00009E5
:101F90004FF0200AC1F3074723E020684069C0439F
:101FA000400515D42068016841F400710160216882
:101FB0006FF480604861C4F8309084F83DA084F8E4
:101FC0003E90216C41F00401216484F83C9021E0B2
:101FD000701C06D0FEF7FCFCA0EB0800B04203D852
:101FE00016B1012F1FD021E02068012F15D0806984
:101FF00025EA00000004000C18D000BF44F8309F10
:1020000084F80DA084F80E90216941F0200121612F
:1020100084F80C900120BDE8F087406925EA0000B3
:102020000004000CEAD12068406901E02068806962
:1020300025EA00000004000CAFD1ECE770B51646AD
:102040000D4604461EE02046FFF7C1FE08B1012000
:1020500070BD681C16D0FEF7BBFC801BA84200D8E0
:1020600085B920684069C04300060BD5002044F8BC
:10207000300F20216173A073216941F0200121619B
:102080002073E4E720684069C0430006DBD40020E9
:1020900070BD00003EB500241148009401940294E4
:1020A0000E498460016004730475012505614FF4D5
:1020B00060214460C161FEF75FFA08B1FEF7DBF909
:1020C0000320CDE90005694602940548FEF7D6F9DC
:1020D000002801D0FEF7CFF93EBD000000240140EA
:1020E000480500207CB531480090002301224FF4C0
:1020F0007A712FA004F0B6FD2F4C00230122E0617D
:102100002E48009064212EA004F0ACFD20622E4ADF
:1021100000212E4801F008FFA06220461824CDE9D6
:102120000040002380222AA12D4804F0F1FB224820
:102130004FF48075001DCDE9004000232A4629A1F7
:102140002C4804F0E5FB1C4800230830CDE9004092
:102150002A4629A12D4804F0DBFB17480023103044
:10216000CDE9004080222AA12E4804F0D1FB12487C
:1021700000231830CDE9004080222BA12E4804F026
:10218000C7FB0D4800230C30CDE9004080222BA175
:102190002F4804F0BDFB084800231430CDE900406F
:1021A0002A462CA1304804F0B3FB7CBD253C000836
:1021B00054696D657231000000000020D9020008EA
:1021C00054696D6572320000606D0008293900089D
:1021D00053686F7754696D655461736B000000003C
:1021E0005935000853686F774D656E755461736B90
:1021F00000000000812E000853686F7743616C6512
:102200006E6461725461736B00000000392700082E
:1022100053686F77466C6173684C69676874546182
:10222000736B0000912D000853686F774448543158
:10223000315461736B000000FD2B000853686F7709
:10224000436C6F636B54696D655461736B00000080
:10225000812A000853686F7753657474696E675FED
:102260005461736B00000000553200082DE9F047FF
:1022700086B000244B480094019402940394816931
:1022800041F010018161816901F0100104918169BF
:1022900041F020018161816901F02001049181698F
:1022A00041F004018161816901F0040104918169B7
:1022B00041F00801816180693B4F00F008004FF454
:1022C00000550490002229463846FEF77CFBDFF8D3
:1022D000DC90002213214846FEF775FBDFF8D0A002
:1022E0004FF40248002241465046FEF76CFB009531
:1022F000022601250396CDE9015469463846FEF7CA
:102300006DFA112700970396CDE9015469464846B6
:10231000FEF764FACDE90256CDE900676946484602
:10232000FEF75CFA03208DE8310069465046FEF75F
:1023300055FAA80200901F48CDE9010569465046AC
:10234000FEF74CFA1C4F4FF40260CDE900076946D6
:1023500002955046FEF742FA2803CDE90007694688
:1023600002945046FEF73AFA4FF48240CDE9000459
:10237000694650460294FEF731FACDF80080039684
:10238000CDE9015469465046FEF728FA002205219E
:102390002820FEF743FD2820FEF732FD06B0BDE8F9
:1023A000F0870000001002400010014000080140CA
:1023B000000C014000003110000011100D4810B554
:1023C0000B4901600C49416000214FF4804281605B
:1023D000C0E9031241618161C1610162FEF7FEFA49
:1023E000002803D0BDE81040FEF745B810BD00003E
:1023F0000054004078050020A0860100104810B568
:102400000E4901604FF48271416000218160C1601A
:102410004FF400720161C0E905120822C0E90721EA
:10242000416281620A21C162FFF7AEF8002803D041
:10243000BDE81040FEF71FB810BD0000003001409D
:10244000CC05002010B596B000240F941094119480
:10245000129413941C2108A81494FDF7C8FE20219F
:102460006846FDF7C4FE2A48284901604721C0E9B3
:10247000011440F2E731C0E903148021C0E90541AD
:10248000FFF774F908B1FDF7F6FF4FF480500F9095
:102490000FA91F48FFF7E2F908B1FDF7ECFF1C4850
:1024A000FFF7DBFB08B1FDF7E6FF139413A918480B
:1024B0001494FFF727F908B1FDF7DDFF60200890BD
:1024C00040F2F310CDE909040B940C940D94002212
:1024D00008A90F480E94FFF75AFB08B1FDF7CBFF90
:1024E00000944FF40050CDE9044002940194039409
:1024F000694607480794FFF7DBF808B1FDF7BBFF13
:102500000348FFF7CDFA16B010BD0000002C0140C3
:102510002406002010B58EB0002407940894099476
:102520000A940B941C2168460C94FDF760FE274822
:102530004FF08041016040F26711C0E9011440F2A0
:10254000CF71C0E9031480218161FFF70FF908B151
:10255000FDF791FF4FF48050079007A91B48FFF744
:102560007DF908B1FDF787FF1848FFF776FB08B142
:10257000FDF781FF0B940BA914480C94FFF7C2F8E8
:1025800008B1FDF778FF6020CDE900040294002235
:1025900069460E480494FFF7FAFA08B1FDF76BFF9D
:1025A000042269460948FFF7F2FA08B1FDF763FF14
:1025B000082269460548FFF7EAFA08B1FDF75BFF14
:1025C0000248FFF76DFA0EB010BD00006C06002047
:1025D00010B58AB0002407941C2168460894FDF7C2
:1025E00006FE1848164901600721C0E9011440F2AF
:1025F000E731C0E9031480218161FFF72EFB08B1A8
:10260000FDF739FF079407A90E480894FFF77AF8F9
:1026100008B1FDF730FF602000904FF46170CDE904
:1026200001040022694607480494FFF7B0FA08B194
:10263000FDF721FF0348FFF733FA0AB010BD000091
:1026400000040040B40600200C4810B50A4901609F
:102650004FF4E1314160002181600C22C160C0E98A
:1026600004128161C161FFF746FB002803D0BDE879
:102670001040FDF700BF10BD00380140FC060020EF
:102680000B4810B5094901600821416002218160B1
:1026900000218161C1610162FEF7F2FB002803D0D5
:1026A000BDE81040FDF7E7BE10BD0000005C004033
:1026B00044070020FEE7FEE770B5124C12A3A4F118
:1026C0002805208882B2A88881B2124802F05AFBFD
:1026D000A08811A382B2A88881B20E4802F052FBF2
:1026E000208910A382B2A88881B20A4802F04AFB6E
:1026F000A0890FA382B2A888BDE8704081B20548C6
:1027000002F040BB480400207468616E6B20796F52
:10271000750000009C0E0020666F6C6C6F77696E10
:10272000670000006D792070726F6A656374000045
:102730004072356574740000D2B00022042101207B
:1027400003F066FE6A49086020B10122510369481E
:10275000FEF739F9684B694A694901A802F010FC93
:1027600001A803F0F2F8002101A803F0FEF801A887
:1027700002F091F8634901A802F0BAFB01A802F047
:10278000A0FB6022604926A8FDF718FD5E491822CB
:10279000603146A8FDF712FD5B490DF1FC0C783164
:1027A0000FC98CE80F00584A43AB883207CA83E848
:1027B00007005549182294314CA8FDF7FFFC4FF053
:1027C000000AD04601253FAE01A802F05BF80024C4
:1027D0000DF58C7704EB4400C31936F81410082269
:1027E00001A802F0CFFA641C062CF3DD284601F0A4
:1027F00031FB81464FF4FD6001F0D2FA012384B22F
:10280000072209E0184601F025FB204490FBF2F175
:1028100002FB110084B25B1CAB42F3D30127C4F16D
:10282000070B1BE00720B4FBF0F100FB1140641C18
:10283000BB4501D3002103E018B908F10101C9B279
:10284000884607EB470226A9531843A931F81820F8
:1028500036F8101001A802F095FA7F1C4F45E1D917
:102860003E20732300900022194601A802F0A6F929
:102870000AEB4A0126A80B182022752101A8DB1CAF
:1028800002F080FA4CA90B2331F81A103F2201A85C
:1028900002F0EEF801A802F014FB15484FF0FF32E9
:1028A0003EA9006803F05EFF9DF8F80001280FD1F3
:1028B0000AF1010000F0FF0A6D1CBAF10B0F01D9FB
:1028C0004FF0000A0C2D00D9012500208DF8F800EA
:1028D0009DF8FB0001287FF477AF0C48006803F0F7
:1028E00039FC002003F0B8FC00208DF8FB006BE7FA
:1028F0002400002000100140355800080D5A00083F
:1029000004E60008048100089CED00080400002093
:102910002DE9FC4752A31E220021534802F032FA4F
:10292000524D53A33C22A87000214F4802F02AFACE
:10293000DFF84481E870002405F10E0905F10A066C
:1029400005F11E0705F1160A39F8141008EBC1004D
:10295000E988CDE9001037F81400A97832880844D6
:1029600081B2AB88404802F01BFA3AF8141008EB29
:10297000C100E988CDE9001037F81400E9787288C1
:10298000084481B2AB88384802F00AFA641C042C6F
:10299000DADB394CE8885034CDE900047889A9782D
:1029A0003288084481B2AB882F4802F0F9F904F16B
:1029B0000800E988CDE900103889A97832880844F0
:1029C00081B2AB88284802F0EBF9E888CDE9000431
:1029D0007889E9787288084481B2AB88224802F08D
:1029E000DFF90F2416231F2268211F48009401F0ED
:1029F00083FF17231F2268211B48009401F07CFFEE
:102A000001231F2268211848009401F095FF2889AE
:102A10001A49C0EB001001EBC0002821CDE90010DD
:102A200014230C225E21104802F0BAF9E888C01C79
:102A300080B20090A88895F90110801C83B230887C
:102A4000801E82B209482A3030F81110A878401E42
:102A5000084481B2044801F08FFFBDE8FC87000004
:102A60005365743A000000009C0E0020EC03002027
:102A70005265743A0000000008ED0008E0E7000825
:102A80001CB500220421012003F0C2FCDFF84491B0
:102A9000C9F8000020B1012251034F48FDF793FF10
:102AA0004E4B4F4A4F49504802F06AFA4E4802F0E6
:102AB0004CFF00214C4802F058FF4B4801F0EBFE60
:102AC0004A49494802F014FA494D4A4F05F10808AD
:102AD0000026A5F10E04444801F0D4FEFFF718FFCC
:102AE000414802F0EEF9207830B94FF0FF3201A9E9
:102AF000D9F8000003F036FE9DF80400012806D145
:102B00006078401C40B26070042800DD66709DF85B
:102B10000500012807D16078401E40B2607000288F
:102B200001DA042060709DF8060001280DD194F9A7
:102B3000010004280ED035F81010491C89B225F880
:102B40001010092901D925F810609DF80700012807
:102B500011D01FE038680028F7D003F03FFF02468D
:102B6000009600230121386804F0C6F80120207087
:102B70008DF80660E9E72670002300961A460321C7
:102B8000386804F0B9F81C48006803F0E3FA002044
:102B900003F062FB207801289DD12988B8F8002035
:102BA0004046914297D169884288914293D1A98841
:102BB000828891428FD1E988B8F8060081428AD193
:102BC0002670002300961A460321386804F094F812
:102BD00081E7000024000020001001403558000863
:102BE0000D5A000804E600089C0E002036870008F5
:102BF000FA0300202000002004000020B0B0FDF700
:102C000091FB00220421012003F002FC544E3060AD
:102C100020B1012251035348FDF7D5FE524B534AD0
:102C2000534902A802F0ACF902A802F08EFE00217E
:102C300002A802F09AFE02A801F02DFE4D4902A85A
:102C400002F056F902A802F03CF918224A4927A8D6
:102C5000FDF7B4FA0DF19C0B02A801F013FE2FA9A9
:102C60002EA8FDF77BFB10B1FDF75CFB54E02F991C
:102C7000142091FBF0F200FB121A0A2391FBF3F1EE
:102C800091FBF0F200FB1217DDF8B81000205A4655
:102C900052F820508D4200DA2C46401C0528F7DB04
:102CA00091FBF4F004FB101991FBF3F090FBF4F1AD
:102CB00004FB1108C7EB0710304D282705EBC000B7
:102CC000CDE9007014231A460A2102A802F068F820
:102CD000CAEB0A1005EBC000CDE9007014231A46B8
:102CE000232102A802F05CF8C8EB081005EBC00035
:102CF000CDE9007014231A464B2102A802F050F8C7
:102D0000C9EB091005EBC000CDE9007014231A4689
:102D1000642102A802F044F80F2219A3114602A868
:102D200002F030F818A30F22552102A802F02AF869
:102D300002A802F0C6F800222DA9306803F012FDA7
:102D40009DF8B700012887D11048006803F002FA07
:102D5000002003F081FA00208DF8B7007CE7000026
:102D60002400002000100140355800080D5A0008CA
:102D700004E600083687000848EE0008E0E700088F
:102D800074656D700000000048756D00040000203F
:102D9000A8B000220421012003F03AFB304D286046
:102DA00020B1012251032F48FDF70DFE2E4B2F4A73
:102DB0002F4902A802F0E4F802A802F0C6FD0021A3
:102DC00002A802F0D2FD02A801F065FD294902A87F
:102DD00002F08EF8284F1E2633461022302102A81A
:102DE000CDE9006701F0DCFF02A802F06AF8B946FD
:102DF000224F00244FF0FF3A4FF0400802A801F0A4
:102E000041FD524627A9286803F0ACFC9DF89E00BE
:102E1000012816D114B1012C13D109E0002280231E
:102E2000114602A8CDF8008001F044FD012408E01D
:102E3000CDE900691E231022302102A801F0B0FF65
:102E400000249DF89F00012805D1386803F082F91D
:102E5000002003F001FA02A802F033F8CEE70000E8
:102E60002400002000100140355800080D5A0008C9
:102E700004E6000870BD000890EC00080400002083
:102E8000042188B00022084603F0C2FABC4F386023
:102E900020B101225103BB48FDF795FD02F026F950
:102EA000B94801F0A3FFB94BB94C03F19800079062
:102EB00004F198000690B74AB848B74902F1980B58
:102EC00001F1980A00F198059C3200F19C0902A8D2
:102ED0009C319C339C34019280E83A000126B04C2E
:102EE0004FF00A080025A84801F0EBFFA64801F0C2
:102EF000C9FF0028F7D1A44801F0C4FC00F044FC4D
:102F0000A14801F0DEFFA06828B94FF0FF32694602
:102F1000386803F027FC9DF80000012815D09DF8C3
:102F2000010001287AD09DF80300012877D09DF890
:102F300002000128DFD19B48006803F00BF9002054
:102F400003F08AF98DF80250D5E7E5602078002873
:102F500066D00221079802F043FF0221069802F092
:102F60003FFF0221584602F03BFF0221504602F08B
:102F700037FF0221059802F033FF607800B96670D0
:102F80006078401EC0B260702178012912D00229F9
:102F900004D0032931D0042942D11EE0E8B3012135
:102FA000039802F03CFF0121049802F038FF012150
:102FB00001982DE088B30121039802F030FF012130
:102FC000484602F02CFF0121049802F001FF012184
:102FD000DDF8040002F0FCFE22E0F0B101210298CD
:102FE00002F01DFF0121019802F019FF012148465E
:102FF00002F0EEFE01210398ECE770B10121019887
:1030000002F00DFF0121049802F009FF012148465A
:1030100002F0DEFE01210298DCE701E015E094E019
:10302000A068401CA06014288ED184F80180E6605E
:10303000207820B1401E20706068401E6060A5604E
:103040008DF800508DF8015055E7E5602078042890
:1030500065D20221079802F0BFFE0221069802F015
:10306000BBFE0221584602F0B7FE0221504602F094
:10307000B3FE0221059802F0AFFE607800B96670D9
:103080006078401EC0B26070217831B1012914D03F
:10309000022924D0032942D131E0F8B1012101985D
:1030A00002F0BDFE0121049802F0B9FE012103984F
:1030B00002F08EFE012148460EE078B10121019810
:1030C00002F0ADFE0121029802F0A9FE0121049850
:1030D00002F07EFE0121039802F07AFE1FE0F0B1BB
:1030E0000121029802F09BFE0121484602F097FE62
:1030F0000121019802F06CFE01210498ECE770B107
:103100000121484602F08BFE0121039802F087FE60
:103110000121029802F05CFE01210198DCE7A06821
:10312000401CA06014288FD184F80180E6602078CC
:10313000042804D2401C20706068401C6060A560B8
:103140008DF801508DF80050D5E620780528FBD287
:10315000DFE800F003050F111300134800E01348E7
:10316000006802F0F7FF002003F076F88DF80350B6
:10317000C1E60F48F4E70F48F2E70F48F0E7000018
:1031800024000020001001409C0E00204800002078
:10319000F00000209801002040020020E8020020FA
:1031A00090030020000000200800002010000020F4
:1031B000180000200C000020140000202DE9F84326
:1031C000DFF884801F4EDFF884900024A8F11405F6
:1031D00004EB840006EB400338F824001F4682B25B
:1031E000288881B21A4801F0CDFD07F10A0118487C
:1031F00001F02AFE49F82400641C052CE8DBA889AC
:10320000114C80B20090104824343C3000210088DA
:1032100083B2208882B20E4801F0AEFB0C200090F1
:103220002088052382B23021094801F043FB3F206A
:103230000090052300223021054801F09DFBBDE8E8
:10324000F883000060EE000834040020300F0020F6
:103250009C0E0020042186B00022084603F0D8F816
:103260008E4E306020B1012251038D48FDF7ABFB3B
:1032700001F03CFF8B498C4801F03AFE8A4801F08E
:10328000B5FD00BFFFF79AFF874801F01AFE864898
:1032900001F0F8FD0028F5D1844D854F002400BFD2
:1032A00004EB840005EB40017F480A3101F0CCFDBE
:1032B00047F82400641C052CF2DB7E4DDFF8F88112
:1032C00005F11400A5F11807049007F1140003900C
:1032D00005F10800029007F1080005F10C0B07F159
:1032E0000C0A4FF00009A5F1500401906E4801F05E
:1032F000C9FAA068052817D2DFE800F00310101003
:1033000014006EA319224021674801F03BFD6DA314
:1033100032223D21644801F035FD05E0206900F0CE
:10332000D9F801E0FFF7C8F9FFF748FF5E4801F060
:10333000C8FDD8F8000028B94FF0FF326946306860
:1033400003F010FA9DF80000012804D09DF8010058
:1033500001284DD089E0D8F80010491CC8F80010A9
:10336000A06804282DD005282BD2DFE800F0030B3D
:10337000151D2F000122291D4E4802F035FD0122A6
:10338000391D06E001224B48029902F02DFD0199FA
:1033900001224848183812E001225946454802F0F7
:1033A00023FD01225146F4E74249012210314148F0
:1033B00002F01AFD3F4901220839A1F1100002F084
:1033C00013FDD8F80000142808D04EE00122394837
:1033D000049902F009FD01220399DAE7A0680428A4
:1033E00001D0401CA060C8F800908DF800903CE02F
:1033F000D8F80010491CC8F80010A06848B3052888
:1034000027D2DFE800F026030B131B000122294816
:10341000049902F0E9FC0122039916E00122291D1A
:10342000244802F0E1FC0122391D0EE0012221486E
:10343000029902F0D9FC0122019906E001225946C5
:103440001C4802F0D1FC012251461A48183802F0FB
:10345000CBFCD8F80010142907D1A16809B1491E86
:10346000A160C8F800908DF801909DF80200012835
:1034700007D12069401C00EBD07121F00101401AF6
:1034800020619DF8030001287FF430AF10480068E8
:1034900002F060FE002002F0DFFE27E7240000209B
:1034A00000100140AE6D00089C0E002060EE000888
:1034B000300F002070040020E803002040723565C2
:1034C00074740000323032352F31312F3034000027
:1034D0000400002038B504462823162246211B4844
:1034E00001F0C6FA28231A464621184801F0C0FA0E
:1034F0000F20BCB1012C14D1009009231F226E2192
:10350000124801F019FA12A3242245210F4801F0B4
:1035100039FC062009231F22462100900B4801F0A8
:10352000EBF938BD009009231F224621074801F01E
:1035300003FA08A322226421044801F023FC092095
:103540001F2203466E210090E8E700009C0E002039
:103550006F6666006F6E0000DFF8EC81A8B0D8F8E7
:10356000000002F079FE7948006802F075FE7848A4
:10357000006802F071FE7748006802F06DFE764840
:10358000006802F069FE7548006802F065FE0022DE
:103590000421012002F03CFFDFF8C491714B724A14
:1035A000C9F80000714902A801F0EAFC02A802F083
:1035B000CCF9002102A802F0D8F902A801F06BF9B9
:1035C0006B4902A801F094FC6A4D012705F1080B34
:1035D00005F1280A02A801F055F967480A24CDE947
:1035E000004000221723114602A801F0D9FB6348CE
:1035F0001723CDE900400022692102A801F0D0FB89
:1036000068785F4EBBF81810C0EB001006EBC000E6
:1036100089B2CDE90010BBF814005C4683B2BBF858
:10362000100082B2BBF80C0081B202A801F0B8FB16
:10363000A878218BC0EB001006EBC00089B2CDE961
:103640000010A08A83B2208A82B2208981B202A8A7
:1036500001F0A6FBBAF80C1089B2CDE90017BAF850
:103660000810BAF800008BB2BAF804108AB281B21E
:1036700002A801F013FB3F483830818989B2CDE9B7
:10368000001701898BB2818800888AB281B202A8B2
:1036900001F004FBE878218BC0EB001006EBC000C2
:1036A00089B2CDE90010A08A83B2208A82B2A088B4
:1036B00081B202A801F074FB2879218BC0EB0010C5
:1036C00006EBC00089B2CDE90010A08A83B2208A3F
:1036D00082B2208881B202A801F062FB294CA8794D
:1036E000082604EBC000CDE9006006230222382141
:1036F00002A801F055FB6879062304EBC000CDE970
:1037000000600222422102A801F04AFB02A801F057
:10371000D8FBFA2002F0B6FC287828B9002227A9A5
:10372000D9F8000003F01EF89DF89E0001287FF4F0
:1037300051AFD8F8000002F00DFD002002F08CFD22
:1037400000208DF89E0045E70400002010000020B6
:10375000140000200C0000200800002018000020A9
:1037600024000020355800080D5A000804E600081F
:1037700070BD00088804002068E7000886E700089C
:10378000E0E7000808ED00082DE9FC415D485C4ACF
:10379000818989B2CDE9001201898BB281880088C4
:1037A0008AB281B2584801F0FBFA5648574A1030A5
:1037B000818989B2CDE9001201898BB281880088A4
:1037C0008AB281B2504801F0EBFA4E4C5049183C95
:1037D000606800EB800001EB400304F13800818851
:1037E00000888AB281B2484801F0CCFA4949A1F177
:1037F0001500B0F8A42092B2CDE90021B0F8A010D5
:103800008BB2B0F89C10B0F898008AB281B23E48F2
:1038100001F0C6FA4049A1F11500B0F8A42092B217
:10382000CDE90021B0F8A0108BB2B0F89C10B0F830
:1038300098008AB281B2344801F0B2FA3749A1F156
:103840001500B0F8A42092B2CDE90021B0F8A01084
:103850008BB2B0F89C10B0F898008AB281B22A48B6
:1038600001F09EFA2E49A1F11500B0F8A42092B201
:10387000CDE90021B0F8A0108BB2B0F89C10B0F8E0
:1038800098008AB281B2204801F08AFA2549A1F154
:103890001500B0F8A42092B2CDE90021B0F8A01034
:1038A0008BB2B0F89C10B0F898008AB281B216487A
:1038B00001F076FA0F260096207804F11007E378DD
:1038C000395CA278104801F037F800250096795D40
:1038D000E378A2780C4801F00FF86D1C052DF5DB9C
:1038E00008483030818989B2009101898BB2818882
:1038F00000888AB281B2044801F03EF8BDE8FC813C
:10390000A4E70008A80300209C0E0020C2E70008DE
:1039100068ED00085D00002005010020AD010020D9
:1039200055020020FD020020084C08B5E06948B1AE
:1039300003F054F802460020034600900121E0699C
:1039400003F0DAF9012000F099FAFBE7000000200B
:1039500010B5502080F31188BFF34F8FBFF36F8FE6
:1039600003F042F818B104494FF08050086000207D
:1039700080F3118810BD000004ED00E030B593B075
:1039800028216846FCF733FC14210AA8FCF72FFC19
:10399000002401200F9410941194010412948DE8D6
:1039A000130004904FF4E010CDE9081002250795AC
:1039B0006846FDF759FC08B172B6FEE70F20CDE965
:1039C0000A054FF48060CDE90C4002210AA80E944C
:1039D000FDF74EFB08B172B6FEE712200F904FF4D0
:1039E0000040CDE911040FA8FDF7CCFA002801D062
:1039F00072B6FEE713B030BD704700000148FDF716
:103A00009CBF0000340A0020F0B50268164B174C2A
:103A1000174D4FF08047984205D0B84203D0A042DE
:103A200001D0A84203D122F070064A68324398427E
:103A300005D0B84203D0A04201D0A84203D122F45D
:103A40004074CA6822434C6922F08002224302601B
:103A50008A68C2620A688262984201D10969016378
:103A600001214161F0BD0000002C01400004004034
:103A70000008004010B5846842EA032224F47F4421
:103A80000A432243826010BD826822F070020A431A
:103A900042F007018160704730B5036A026A22F084
:103AA000010202624268846924F073050C682C43A9
:103AB00023F002058B682B430A4DA8420BD123F05B
:103AC0000805CB6822F440722B434D6923F00403B0
:103AD00015438A692A4342608461496841630362ED
:103AE00030BD0000002C014030B5026A036A23F0AB
:103AF00010030362436884690D6824F4E64444EAD1
:103B000005248D6822F0200242EA05120B4DA842DE
:103B10000ED1CD6822F0800242EA05124D6923F4ED
:103B2000406343EA85038D6922F0400243EA85033E
:103B30004360846149688163026230BD002C0140AA
:103B400030B5036A026A22F4807202624268C46974
:103B500023F4007324F073050C682C438D6843EA4A
:103B600005230C4DA8420ED1CD6823F4006343EA2F
:103B700005234D6922F4405242EA05128D6923F46F
:103B8000806342EA05124260C4614968C16303620E
:103B900030BD0000002C014030B5046A026A22F4F6
:103BA000805202624268C3690D6823F4E64343EA27
:103BB00005238D6824F4005444EA0534064DA842D8
:103BC00004D14D6922F4804242EA85124260C36109
:103BD00049680164046230BD002C014010B5036ADD
:103BE000046A24F001040462846924F0F00444EAC5
:103BF000021423F00A020A438461026210BD10B568
:103C0000036A046A24F010040462846923F0A003A8
:103C100024F4704444EA023243EA011182610162F1
:103C200010BD000014484178491CCAB200214270FE
:103C3000092A03D941708278521C82708278052A41
:103C400003D98170C278521CC270C278092A03D984
:103C5000C1700279521C02710279052A03D90171DF
:103C60004279521C42714279052A03D94171817906
:103C7000491C8171704700008804002070B504461B
:103C800000680169E26821F4405111430161216932
:103C9000A0680843616908432168CA6841F20C635F
:103CA0009A430243CA6020684169A26921F44071C5
:103CB000114341611E492068884202D1FDF79EFAF6
:103CC00001E0FDF78BFA00EBC00101EB0012606828
:103CD00064218000B2FBF0F3B3FBF1F36FF0180640
:103CE0007343B2FBF0F5B2FBF0F605EB830532232C
:103CF00003EB0515B5FBF1F5B6FBF1F605F0F005A4
:103D000005EB0615B2FBF0F6B2FBF0F0B0FBF1F0FC
:103D10006FF01802504306EB800003EB0010B0FB7D
:103D2000F1F0216800F00F002844886070BD0000A9
:103D3000003801400020704700207047012120F822
:103D4000401F00210180818001820846704730F8C1
:103D5000401F21F43F410180002070470020704740
:103D6000FEE70907090E002804DB00F1E02080F8D7
:103D70000014704700F00F0000F1E02080F8141DDF
:103D8000704702E008C8121F08C1002AFAD1704724
:103D90007047002001E001C1121F002AFBD17047CB
:103DA00030B50546012802D00023012409E0012096
:103DB00030BD204600F011F801280BD003F26D133E
:103DC000641CAC42F5DB07205B1C93FBF0F100FBAD
:103DD000113030BD03F5B773F2E74FF4C87190FBB3
:103DE000F1F201FB120139B1810707D1642190FB87
:103DF000F1F201FB120008B101207047002070476A
:103E0000FCF77CFFFFF7BAFDFEF730FAFEF7D6FAB3
:103E1000FEF740F9FEF7F2FAFEF732FCFEF712FB6E
:103E2000FEF778FBFEF7D4FBFEF70EFC00F040F83F
:103E3000FEF758F900F058F8FEE770B50546002483
:103E40004FF47A7603E0304601F0A6FF641CAC42E2
:103E5000F9DB70BD0D280ED2DFE800F00D0B070B6B
:103E6000090B090B0B090B090B001D2070471E20C5
:103E700070471F20704700207047000010B5EFF317
:103E8000058149B9EFF3108131B908490968022960
:103E900005D1EFF3118111B16FF0050403E00024A7
:103EA00008B102F0EFF8204610BD00002005002008
:103EB000EFF3058058B9EFF3108040B9094908685D
:103EC000022801D030B109E0EFF3118030B16FF07A
:103ED0000500704701200860002070474FF0FF3058
:103EE000704700002005002010B5EFF3058060B991
:103EF000EFF3108048B90B490868022802D0012866
:103F000006D00BE0EFF3118040B16FF0050010BD5B
:103F10000220086002F05CF9002010BD4FF0FF3075
:103F200010BD000020050020F0B585B04FEA010368
:103F30004FF00004EFF305810394A1BBEFF3108170
:103F400089BB21490968022902D1EFF3118151BBD4
:103F500048B3802618218DF8104004AD42B317688D
:103F600007B13D4697691FB139467F1E382F02D2EF
:103F70001779FF0702D0002005B0F0BD576907B1DF
:103F8000BE08D2F808C0BCF1000F0DD0D4685C2C7C
:103F900018D312693AB137B18DE806103246294676
:103FA00002F0E3FC03900DE0D7685FB912694AB9EB
:103FB00003AACDE90012B2B2294602F0A9FC0128F9
:103FC00000D003940398D7E7200500202DE9F041A5
:103FD000134C0F46054666692068001D01F023FF5B
:103FE000681C07D137B12168BDE8F0410D48091DB3
:103FF00001F068BF20683544B5424560216805D2AC
:10400000A068BDE8F041091D01F044BF6068091DCA
:1040100001F040FF206B854200D22563BDE8F081AE
:10402000D0040020341400202DE9F041054601F0B1
:1040300055FF2D4C2069401C206120682B4F10B18A
:10404000E06930B32BE025602069012827D10026E4
:1040500006EB860007EB800001F00EFF761C382E81
:10406000F6D3234801F008FF2148143001F004FF83
:104070001F48283001F000FF1D483C3001F0FCFED5
:104080001B48503001F0F8FE194860601430A06001
:1040900005E02068E96AC06A884200D82560E06AC5
:1040A000401CE0626864E86AA169884200D9A061A6
:1040B00000EB800007EB8000291D01F003FF01F0F9
:1040C0002DFFE06900280CD02068E96AC06A8842A8
:1040D00007D208494FF080500860BFF34F8FBFF3FD
:1040E0006F8FBDE8F0810000D0040020840F002015
:1040F000E413002004ED00E038B501F0EFFE104CB1
:10410000A068C8B90F4801F0B7FE0E48143001F09E
:10411000B3FE0C482060143060600A4B0020283346
:10412000009003F1500210210A2002F095F9A060DE
:1041300010B105A101F070FFBDE8384001F0EEBEFE
:104140000C05002048140020546D7251000000003E
:1041500030B4026C0B46002A0BD0C1681144C16018
:104160004468A14201D30168C16030BC1846FCF725
:1041700025B830BC70472DE9F041856B17460446E1
:104180000026026C82B1C7B1E068FCF717F8E1685D
:10419000206C091AE1602268914202D26168081A13
:1041A000E060022F16D017E02068A8B9606802F01E
:1041B0007FFC0646002060600EE0A068FBF7FEFF73
:1041C000216CA0680844A0606168884204D320681C
:1041D000A06001E005B16D1E6D1CA5633046BDE811
:1041E000F08110B5044690F8590058B101280CD060
:1041F00002280FD0502080F31188BFF34F8FBFF3F8
:104200006F8FFEE7206B01F09DFE2046BDE8104059
:1042100001F098BE10BD000010484FF44061420705
:1042200006D0C01D0D4920F00700411AC1F54061BC
:104230000B4A00230144C2E900030839103A21F077
:10424000070111604B600B600B1AC0E9001393600B
:104250004FF000405360D06070470000181C0020F1
:1042600034050020144E154CA6F29C474FF08058A0
:10427000DFF84C9012E000BF01F030FEF068C56836
:10428000281D01F0D0FD2069401E2061E068401E1D
:10429000E06001F043FE2846FFF7A3FFE068002836
:1042A000EAD138680128F9D9C9F80080BFF34F8FE7
:1042B000BFF36F8FF2E7000020140020D00400202D
:1042C00004ED00E070B51D46049C51B1C4F8002017
:1042D000C4E90F010121204602F0F2F884F84C50A5
:1042E00070BD2460F4E72DE9F0470E46DDE909844E
:1042F0001746824691009946089DA522206BFBF740
:104300006FFF6FF00301206B01EB8701084420F081
:104310000707780707D0502080F31188BFF34F8F2D
:10432000BFF36F8FFEE72218315C82F83410315CE6
:1043300011B1401C1028F6D3002684F84360382DB4
:1043400000D33725E562C4E91356201D01F09FFD17
:1043500004F1180001F09BFD2461C5F1380064628E
:10436000A061666584F858604A465146384600F0B8
:1043700077FA2060B8F1000F01D0C8F80040BDE81E
:10438000F0872DE9F0471E46DDE9089417460D0039
:1043900080460ED0002C14D0FFF7AEFEC4F800808B
:1043A000C4E90657C4E90869201DBDE8F04701F0DB
:1043B0006EBD502080F31188BFF34F8FBFF36F8F16
:1043C000FEE7BDE8F087000030B5114900E0114676
:1043D0000A688242FBD34B685C18844203D1406870
:1043E00018444860084643681C18944209D1084C98
:1043F000103C2468A24209D052681A4442600A68FC
:1044000012680260814200D0086030BD0460F9E7A4
:104410003405002070B5002441600B4D00619142CD
:1044200006D8D11A8269914206D2011D686807E058
:104430009A4203D2994201D3012403E0011D286866
:1044400001F028FD204670BD0C05002010B5044683
:1044500001F044FDA06B28B15FF0000401F05EFDA7
:10446000204610BD0124F9E730B589B0304D55E044
:104470000498002806DADDE90601059A90470498B9
:1044800000284BDB069C606910B1201D01F0CBFCBD
:1044900002A800F0B9F8024604980A283ED2DFE8E4
:1044A00000F00505053D263705053D260598A1695F
:1044B000034601442046FFF7ADFF00B3616A204682
:1044C0008847E069012829D1002000900598A1695A
:1044D000002342181946204602F00EFC78B95020FD
:1044E00080F31188BFF34F8FBFF36F8FFEE70598FE
:1044F000A06128B1811813462046FFF78BFF0DE01D
:10450000502080F31188BFF34F8FBFF36F8FFEE70A
:1045100094F82C0010B9204601F014FD002204A9E3
:10452000A86802F01FF90028A2D109B030BD000030
:104530000C0500202DE9FC410F46054601F0DAFE8E
:1045400001A800F061F80446019818B102F028FBB8
:10455000BDE8FC81224EAFB170680068A8B30027A7
:10456000291B3A46B06801F06BFD02F019FB0028E8
:10457000EED11C494FF080500860BFF34F8FBFF35E
:104580006F8FE5E7A542EBD802F00AFB30682746BB
:10459000C068C468201D01F046FCE069012810D104
:1045A000A0692B4641193A462046FFF733FF40B138
:1045B00000200346014600902A46204602F09CFB5C
:1045C00020B1616A20468847C2E707E0502080F3A7
:1045D0001188BFF34F8FBFF36F8FFEE70127BFE74F
:1045E0000C05002004ED00E006484168096829B187
:1045F0004168C968C9684968016370474FF0FF3175
:10460000FAE70000D004002070B5054602F0E6F994
:10461000064E04463069844203D200F009F80120B6
:1046200000E0002028602046346170BD0C050020A9
:10463000F8B5194D1FE0C068C4680668201D01F078
:10464000F2FB616A20468847E069012813D1A0691E
:104650003044B04206D924616060211D286801F011
:1046600019FC08E00020034601460090324620462F
:1046700002F042FB38B1286801680029DBD1696883
:10468000C5E90010F8BD502080F31188BFF34F8FAB
:10469000BFF36F8FFEE700000C050020084840685C
:1046A000401C4FF0500080F3118804D0BFF34F8FAF
:1046B000BFF36F8FFEE7BFF34F8FBFF36F8FFEE740
:1046C0003C050020002150B10A4B42699A420FD1AB
:1046D000806AA3F1280290420AD040B108E050203D
:1046E00080F31188BFF34F8FBFF36F8FFEE7012177
:1046F0000846704734140020074C2068016841B117
:10470000C0680021D0F80000FFF714FFFFF7ACFEEF
:10471000F3E701210020F7E70C0500202DE9F04127
:10472000044601F0DBFB94F9455004F1240609E04E
:10473000606A48B1304602F0FBF908B101F0D0FCE4
:104740006D1E6DB2002DF3DC4FF0FF3684F845602E
:1047500001F0E4FB01F0C2FB94F9445004F11007AE
:1047600009E0206948B1384602F0E2F908B101F0E9
:10477000B7FC6D1E6DB2002DF3DC84F84460BDE81B
:10478000F04101F0CBBB00002DE9F04105460027C8
:1047900001F0B0FD314E306808B9FFF73DFDF0681B
:1047A00005424BD1C5B3083568070ED005F00700A8
:1047B000C0F108000544680707D0502080F3118835
:1047C000BFF34F8FBFF36F8FFEE72DB37068854245
:1047D00034D82248103001460C6801E020460C46CF
:1047E0006168A94202D221680029F7D131688C4260
:1047F00024D007682168016060680837411B1029D0
:104800000FD96019420708D0502080F31188BFF3F8
:104810004F8FBFF36F8FFEE710E041606560FFF7D9
:10482000D3FD61687068401A7060B268904200D22F
:10483000B060F06801430020C4E9000102F0B0F963
:10484000780707D0502080F31188BFF34F8FBFF354
:104850006F8FFEE73846BDE8F08100002405002098
:1048600010B5031F4FF080741C601B1F21F0010165
:104870001960191F024B0B60143940380A6010BDD3
:104880009D46000801680A7C90F83810406B51433F
:10489000C900FBF7ACBC10B5044600F0A7FA2046EF
:1048A00000F0F0FA0028FAD12046BDE810400021BF
:1048B00000F010BB2DE9F8438146089C1E461019F4
:1048C00080B20090881983B215468846484600F0A9
:1048D000C1FA00280ED00027002C0BD033462A4600
:1048E00041464846009700F0C9F86D1C641EADB201
:1048F000A4B2F1E7BDE8F8832DE9F8431C468046F1
:104900001019401C80B200900819401C83B2154653
:10491000101B82B20E46081B81B2089F404600F071
:1049200099FA002806D023462A4631464046009789
:1049300000F0FEFBBDE8F8832DE9F8431C468046F5
:104940001019401C80B200900819401C83B2154613
:10495000101B82B20E46081B81B2089F404600F031
:1049600079FA002806D023462A4631464046009769
:1049700000F070FCBDE8F8832DE9F84F83460A9EED
:104980009A46901980B201EB0A04009015460F4632
:10499000A3B2584600F05EFA00282FD04FF000096D
:1049A00053462A4639465846CDF8009000F066F83E
:1049B000022E23D3B61E360405F10105360CADB226
:1049C00014D04FF0010833462A4639465846CDF8F0
:1049D000008000F053F8641EA1B233462A465846C0
:1049E000CDF8008000F04AF8A81985B253462A464F
:1049F00039465846CDF8009000F040F8BDE8F88FF1
:104A00002DE9F041044690F870001F4615460E4609
:104A100030B1012809D002280CD0032815D10FE0AD
:104A2000E16D20468847284408E0E16D204688472C
:104A3000301A09E0E16D20468847281A85B204E063
:104A4000E16D20468847304486B22846A4F8646069
:104A5000A4F8660039460025204600F0D7FD010085
:104A600003D0204600F002FD85B22846BDE8F08163
:104A700038B50024009400F001F838BD3FB581B08E
:104A8000044690F88C00089900283AD0BDF8100030
:104A9000002836D0012811D9022902D0032907D0D5
:104AA0000CE0BDF80820101A401CADF8080005E025
:104AB000BDF80C20101A401CADF80C0011F00105D7
:104AC00021D0B4F84810BDF80800814219D8B4F8D4
:104AD0004A10814215D9B4F84E30B4F84C2004A9DC
:104AE0000DF10C0000F0E4FA00280AD00095206BCC
:104AF000BDF81030BDF80C208568BDF808102046C0
:104B0000A84705B030BDB4F84C10BDF80C00814288
:104B1000F7D8B4F84E108142F3D9B4F84A30B4F85B
:104B2000482004A902A8DDE72DE9FF4F81B090F8E5
:104B30009270DDF838901D46884606469FB10020E9
:104B4000834603984146401C80B2009008EB050064
:104B500083B23046039A00F07DF900282BD001245F
:104B60004FF0000A23E00120EAE700BF99F80000B7
:104B7000204202D086F8927004E096F8910048B97D
:104B800086F892B00123CDF800A041463046039A42
:104B9000FFF774FF08F101001FFA80F8600010F0C1
:104BA000FF0402D1012409F101096D1EADB2002DEF
:104BB000DCD186F8927005B0BDE8F08F2DE9FF5F7B
:104BC0001C460E984FF00009A14201D90B1B00E0D2
:104BD000631A9DB2824201D9131A00E0831A9EB271
:104BE000AE420AD92B4635461E460B4611461A469A
:104BF000234604464FF001091846A14205D90B4649
:104C000021461C461346024618464FEA5508904274
:104C100001D9012001E04FF0FF308246A4F57F402A
:104C20009346FF3801D1641EA4B20F4618E000BFBE
:104C3000B9F1000F18D03A465946009800F017F81D
:104C4000A8EB060000B25FEA000807D50BEB0A00EC
:104C50001FFA80FB08EB05000FFA80F87F1CBFB23B
:104C6000A742E5D9BDE8FF9F5A463946E5E708B5B2
:104C7000B0F84C30934210D8B0F84E3093420CD973
:104C8000B0F848308B4208D8B0F84A308B4204D98B
:104C9000002300930123FFF7F1FE08BD2DE9FF4F2C
:104CA00083B01F46DDE910A402EB0A06B0B2CD19AD
:104CB000009090468946ABB2039800F0CBF80028EC
:104CC0005CD009EB04001FFA80FB08EB040081B202
:104CD000281B401E85B2301B401E80B2CDE9010169
:104CE00002200A460090234659460398FFF724FE07
:104CF00001200090DDE9022023462946FFF71CFE33
:104D00000420009023465946019A0398FFF714FEA9
:104D10000820009023462946019A0398FFF70CFECD
:104D20000BF101011FFA81FB0299381B491C001B82
:104D300080B289B20291032811D3801E86B2601C12
:104D400085B233464246594600950398FFF7B2FDB7
:104D5000334600955946019A0398FFF7ABFDAAEB3D
:104D60000400001B80B2032808D3801E80B200908C
:104D7000DDE902203B464946FFF79CFD07B0BDE850
:104D8000F08F000030B4024C446030BC00F00CBB2B
:104D9000D159000838B501240094FFF76FFE38BDE3
:104DA0002DE9F84F8246DDE90A57D81DC0F3CC083B
:104DB000501980B21C460090081983B216468946E5
:104DC000504600F047F800280ED00BE0234632464C
:104DD000494650460097FFF7A7FE761C6D1E4744D4
:104DE000B6B2ADB2002DF1D1BDE8F88F10B50446D2
:104DF00090F8930010B12046FFF744FD2046BDE82F
:104E00001040002100F066B870B5044600F0FEFBCB
:104E1000010016D0204600F03CFC04F1600094F83C
:104E20007A10054600F0FDFA84F8900014F87B1F14
:104E3000284600F0F6FA61782846BDE8704000F098
:104E4000F0BA002070BD0000014A426000F0FEBCD4
:104E5000D159000870B50D461E460446B0F84E10F4
:104E6000B0F84C00049B00F02EFC002809D0B4F8E8
:104E70004A10B4F8480033462A46BDE8704000F0B6
:104E800022BC70BD70B5044600F0ADFC94F839004A
:104E900094F838100844C5B22068407CA84204D871
:104EA000204600F05AFD002070BD94F8930010B128
:104EB0002046FFF7E7FC2946204600F00BF80120CA
:104EC00070BD10B5044600F08EFC2046BDE81040D1
:104ED00000F043BD10B5044680F83910006B01683E
:104EE00020468847206B41682046BDE810400847AF
:104EF00010B50446806D884209D004F17400A165A4
:104F000000F03CFC2046BDE8104000F055B810BD54
:104F10000149C165704700001F5400080021A0F836
:104F20005010A0F854104FF6FF71A0F85210A0F8DE
:104F30005610016B4968084770B50446002504986F
:104F4000A565E362616384F8382084F8395084F8F9
:104F50006D5084F8915084F88D50012184F892109E
:104F600084F8931020630168204688472046FFF7A5
:104F7000D5FF2046FFF7CCFF84F8705070BD0000CD
:104F80007CB50C46009313460546084A084900F0D4
:104F9000F4FC01A800F0ECFB0146064B00949DF8E0
:104FA00004202846FFF7C8FF7CBD0000295B0008ED
:104FB000515C0008E156000810B5816D00291AD037
:104FC00090F9813080F88E3090F9822080F88F201F
:104FD00090F88D1000290ED001290DD090F97E4057
:104FE00090F980100C449C4201DD80F88E408A428A
:104FF00001DD80F88F1010BD90F983108B4201DA2B
:1050000080F88E1090F98410F1E72BB1012B05D0B8
:10501000022B06D0104402E0084400E0801A80B25F
:105020007047401AFBE72BB1012B05D0022B06D0AD
:10503000401A02E0104400E0084480B27047801A31
:10504000FBE738B50446B0F856000090B4F852308B
:10505000B4F85420B4F850102046FFF7FBFE18B304
:10506000012084F88C00B4F84810B4F85000814254
:1050700001D2A4F84800B4F84A10B4F852008142B2
:1050800001D9A4F84A00B4F84C10B4F85400814295
:1050900001D2A4F84C00B4F84E10B4F85600814286
:1050A00001D9A4F84E0038BD002084F88C0038BD2A
:1050B00030B504880D882544ADB2AC4205D99C4278
:1050C00002D25D1EADB200E014469C4201D2954270
:1050D00001D8002030BD944200D214469D4200D930
:1050E0001D460480281B0880012030BD10B50B4BE5
:1050F0000B4A0C490C48FFF743FF0B4800F025FC16
:105100000021094800F031FC0748FFF7C4FBBDE867
:10511000104006490448FFF7EBBE00003558000870
:105120000D5A000804E600089C0E00203A79000899
:105130002DE9FF4FC3F1010083B006B258429146FA
:10514000DDF840A040008B4601271C46CDE9009ABF
:1051500000250FFA80F85B462246294615E0002E0E
:1051600008DB08F102000FFA80F8641E06EB080065
:10517000A4B206B26D1CBF1C3FB2CDE9009AADB21D
:10518000F01906B25B4622462946039800F005F85E
:10519000A542E4D307B0BDE8F08F2DE9FF4F83B0FF
:1051A0000E46DDE9108703EB060002901546A8EBDA
:1051B0000600019003EB05001C46F907A8EB050B60
:1051C00000900DD002981FFA8BF281B20398FFF77E
:1051D0004EFD019882B2009881B20398FFF747FD17
:1051E000B907A4EB060AA4EB05090DD51FFA8BF24B
:1051F0001FFA8AF10398FFF73AFD01981FFA89F127
:1052000082B20398FFF733FD08EB0504390708EB7A
:1052100006050BD50298A2B281B20398FFF727FDCD
:105220000098AAB281B20398FFF721FD78070ED546
:10523000A2B21FFA8AF10398FFF719FD039807B08D
:10524000AAB21FFA89F1BDE8F04FFFF710BD07B011
:10525000BDE8F08F2DE9FF4FC3F1010083B006B226
:1052600058429146DDF840A040008B4601271C467D
:10527000CDE9009A00250FFA80F85B4622462946C0
:1052800015E0002E08DB08F102000FFA80F8641E1A
:1052900006EB0800A4B206B26D1CBF1C3FB2CDE9FC
:1052A000009AADB2F01906B25B4622462946039831
:1052B00000F005F8A542E4D307B0BDE8F08F2DE972
:1052C000FF4F83B0164610980F46A0EB060B03EB7A
:1052D000070001901098DDF84490A0EB0700984675
:1052E0005FEAC97103EB060A02F1010507F1010447
:1052F00000900FD00198ABB281B21FFA8BF20398E5
:10530000FFF748FD0098A3B282B21FFA8AF1039812
:10531000FFF740FD5FEA8971A8EB0707A8EB0606D7
:105320000DD5ABB21FFA8BF2B9B20398FFF732FD7D
:105330000098A3B282B2B1B20398FFF72BFD5FEAE7
:1053400009700DD50198ABB281B2109A0398FFF79E
:1053500021FDA3B21FFA8AF1109A0398FFF71AFDF4
:105360005FEA49700ED5ABB2B9B2109A0398FFF755
:1053700011FD109A039807B0A3B2B1B2BDE8F04F87
:10538000FFF708BD07B0BDE8F08F38B5C58F049CA6
:105390000094521BC46A92B2A04738BD38B5049C31
:1053A0000094FFF7F2FF38BD2DE9F0471C46914607
:1053B0008846064600F0ECFC00254FF6FF77726841
:1053C0002178304690470346B84225D0641CA3F5A7
:1053D0007F40FE38F3D04A4641463046FFF710FB87
:1053E00096F8701031B1012907D0022908D003299D
:1053F0000FD10AE008EB000104E009EB000106E030
:10540000A8EB00011FFA81F803E0A9EB00011FFAE5
:1054100081F9284485B2D2E72846BDE8F08700200C
:10542000704710B50C4600F006F80122641EA24039
:10543000801A40B210BD30B50568047B2A78E2407E
:105440006318DBB2082B09D36D1C05602D78C4F1FD
:105450000804A5401543083BEAB2DBB201248C40A6
:10546000641E14400373204630BD00002DE9F8434C
:10547000054600F1600400F00CF915F96B6F204649
:10548000E97BFFF7CEFF8146297C2046FFF7C9FF65
:105490000746697C20466B3DFFF7C3FF804694F9C1
:1054A0000A00002857DDF019404247B2237CA0884B
:1054B0003A464946FFF7A9FDA080237C3A46E0889A
:1054C0004946FFF7B0FDE080A188277C02460B46E5
:1054D00037B1012F0AD0022F40D0032F0FD146E061
:1054E00094F90A7030443B449BB207E0891B491C85
:1054F00094F90A705B1C89B29BB2384480B2009068
:105500002846FFF7A7FC30B30020207284F809007A
:1055100095F876102046FFF78EFF814695F87710B4
:105520002046FFF788FF074600224946284600F03C
:1055300027F801223946284600F022F801212046AA
:10554000FFF779FF0028EFD194F90900B042DFDBC3
:10555000A07B85F892004046BDE8F88394F90A7074
:105560005B1CC91B491C89B29BB2921B04E094F9D5
:105570000A7033449BB2D21B521C92B2401CBDE74E
:105580002DE9F74F84B00D46049C94F8687094F8A8
:1055900069806034A07AC01BC6B20196B54200D2C1
:1055A00001954FFA88F279B2A088B4F806B0237C4E
:1055B00092468946FFF729FD0290237C52464946D0
:1055C0005846FFF730FD0246069808B1A17B02E07D
:1055D000607B50B9E17B049880F89210207C0090A9
:1055E000DDE901310498FFF749FAB54207D3A81B5A
:1055F000C5B208F10100002700F0FF08CAE77819DA
:10560000207284F8098007B0BDE8F08F70B50D46B0
:105610000146806D1730FF2D10D8612D02D3B1F8EF
:10562000881003E0412D02D3B1F886100844417878
:1056300019B30278AA42F9D1801C70BDB1F88A1062
:105640000C1826460021304600F019F804440221C7
:10565000304600F014F8361DA842F3D34FF6FF721F
:10566000207802EA00216078084306D0A84201D1E0
:10567000E01C70BDA0780444F2E7002070BD08442F
:105680004FF6FF720178407802EA0121084480B2A7
:10569000704730B5054600F16004016600202073B4
:1056A00015F8781F2046FFF7C6FEA07269782046DD
:1056B000FFF7C1FEE072A87EA07310B10020E07376
:1056C00030BD0120FBE78A4205D2834201D89A42CD
:1056D00003D9012070478342F9D8002070470000A9
:1056E000F0B502F007060124B440002590F892E0DE
:1056F000E7B2DDF814C02C46BEF1010F01D83D46DB
:1057000000D03C46076822F00702BCF1000F3F7C46
:1057100007FB02F7BAB2476B3A44114409D1087843
:105720005B1E284360401B0401F8010B1B0CF6D1E3
:10573000F0BD0A78761C2A436240A3F101030A7087
:1057400016F007069BB206D06A06150E6206140E06
:10575000002BEED1F0BD428F114490F89220012A27
:1057600003D800BF4FF00105F2D04FF00104EFE77E
:1057700008210170004870477C0A002070B505467A
:1057800008782870487868708878A870C878E870B9
:10579000087928714879687188790C46A871E07990
:1057A000E871207A2872607A6872A07AA872E07A2A
:1057B000E872207B2873607B6873A07BA873E07B12
:1057C000E873207C287411212046FFF758FF688277
:1057D00013212046FFF753FFA88215212046FFF72B
:1057E0004EFFE88270BD2DE9F843064690F8387008
:1057F00090F83950006800244FF6FF7890F8119027
:10580000316830462A460B7C716B04FB03FC1FFA9F
:105810008CFC08EACC0C61440091002100F086F871
:10582000641C6D1CE4B2EDB2BC4201D24D45E7D31D
:10583000BDE8F88310B51046282905D0292901D0E4
:10584000002010BDFAF752FF012010BD2DE9F047EE
:105850000546002085F86A0088466FF03F06284616
:1058600000F096FA002427464FF6FF794FF6FE7AAD
:105870006A6898F8001028469047014648450FD0BE
:1058800008F101085145F3D02846FFF7BDFA87B269
:1058900016F1400F01D195F99060E01984B2E7E765
:1058A00095F96A1049B1E01B084495F99010002E53
:1058B000084484B201DDA01984B22046BDE8F08717
:1058C000F0B590F838204FF6FF75036805EAC2017D
:1058D0008187197C05EAC101418790F8394005EAC2
:1058E000C401C1875E7CA718B74201D9321B92B2AE
:1058F00005EAC20220F8401F11444180998A818044
:10590000D98AC180F0BDFFF7DBBF0021A0F84810A5
:10591000B0F84410A0F84A10B0F84010A0F84C10AD
:10592000B0F84210A0F84E10FFF78BBB1CB58DF8F5
:1059300005108DF80620049C8DF804300094012297
:1059400084686B460F21A0471CBD30B484680023D7
:10595000A44630BC1A460A21604730B4846800234C
:10596000A44630BC1A461021604730B48468002336
:10597000A4460A4630BC0B2160472DE9F04115468C
:105980000E460446069F00F009F86761A660C4E968
:1059900003532046BDE8F04100F012B8002140F862
:1059A000081B064A026042608260C260C17681774D
:1059B0000161FF21017780F820107047555D0008D4
:1059C00030B484680023A44630BC1A4609216047DD
:1059D000080001D00A2801D14FF6FF70704730B49B
:1059E00004690023A44630BC1A461921604713B548
:1059F0000122046901AB1721A0471CBD30B4046922
:105A00000023A44630BC1A461821604738B5154C0F
:105A1000182918D004DC142922D0172904D105E054
:105A2000192913D020291BD0002038BD0E4907E0CA
:105A3000A07813F8015B0D54401C521EA070D2B226
:105A4000002AF5D10CE00020A07009E04FF480712D
:105A5000009190F82410A378034A0448FBF782F8D9
:105A6000012038BD3C0000207C0E0020780500207D
:105A700030B4C4680023A44630BC1A4619216047DC
:105A800030B4C4680023A4460A4630BC16216047DF
:105A900030B4C4680023A4460A4630BC15216047D0
:105AA00030B4C4681346A4460A4630BC1721604788
:105AB000F8B50C464FEA000514F8011B182924D04C
:105AC0000EDC152919D0162917D0172923D12078D3
:105AD0008DF800006A4601212846FFF7E1FF0AE041
