:020000040800F2
:1000000070190020990100088B250008511C000878
:1000100089250008770300087D2B000800000000F8
:1000200000000000000000000000000001010008C6
:10003000790300080000000045010008C5270008FA
:10004000B3010008B3010008B3010008B3010008C0
:10005000B3010008B3010008B3010008B3010008B0
:10006000B3010008B3010008B3010008B3010008A0
:10007000B3010008B3010008B3010008B301000890
:10008000B3010008B3010008B3010008B301000880
:10009000B3010008B3010008B3010008B301000870
:1000A000B3010008B3010008B3010008B301000860
:1000B000B3010008B301000871280008B30100086B
:1000C000B3010008B3010008B3010008B301000840
:1000D000B3010008B3010008B3010008B301000830
:1000E0007B030008B3010008B3010008DFF80CD05F
:1000F00000F0D8F800480047BD2B00087019002018
:10010000224B19680868B0E8F00F80F30988BFF344
:100110006F8F4FF0000080F311884EF00D0E704786
:100120000000000006480068006880F3088862B696
:1001300061B6BFF34F8FBFF36F8F00DF00BF00BF0B
:1001400008ED00E0EFF30980BFF36F8F0F4B1A68E3
:1001500020E9F00F106008B54FF0500080F31188CF
:10016000BFF34F8FBFF36F8F03F000FF4FF000001E
:1001700080F31188BDE8084019680868B0E8F00FFE
:1001800080F30988BFF36F8F704700BFB40300206E
:10019000EFF3058070470000064880470648004797
:1001A000FEE7FEE7FEE7FEE7FEE7FEE7FEE7FEE727
:1001B000FEE7FEE76D280008ED0000082DE9F05F7E
:1001C0000546002092469B468846064681464024C6
:1001D0001BE0284641464746224600F020F8534699
:1001E0005A46C01A914110D311461846224600F0D3
:1001F0004AF82D1A67EB01084F46224601200021DC
:1002000000F041F817EB00094E41201EA4F1010453
:10021000DFDC484631462A464346BDE8F09F202AA7
:1002200004DB203A21FA02F00021704721FA02F3A0
:10023000D040C2F12002914008431946704740EA7D
:1002400001039B0703D009E008C9121F08C0042A54
:10025000FAD203E011F8013B00F8013B521EF9D23B
:100260007047D2B201E000F8012B491EFBD2704763
:100270000022F6E710B513460A4604461946FFF772
:10028000F0FF204610BD202A04DB203A00FA02F1DC
:10029000002070479140C2F1200320FA03F3194374
:1002A00090407047064C074D06E0E06840F00103BF
:1002B00094E8070098471034AC42F6D3FFF71AFFD2
:1002C000604A0008804A000870B58C1810F8015B7D
:1002D00015F0070301D110F8013B2A1106D110F8DF
:1002E000012B03E010F8016B01F8016B5B1EF9D1E3
:1002F0002B0705D40023521E0DD401F8013BFAE769
:1003000010F8013BCB1A921C03E013F8015B01F8D3
:10031000015B521EF9D5A142D8D3002070BD000068
:1003200070B5044600688168C943C90717D1816860
:1003300021F00101816000F08DFA05460AE000BF5E
:1003400000F088FA401B022804D920688068C04366
:10035000C00706D020688068C043C007F0D00020E6
:1003600070BDA06A40F01000A062E06A40F0010099
:10037000E062012070BDFEE7704710B54FF4806069
:1003800000F062F94FF4006000F05EF9BDE8104043
:100390004FF4805000F058B972B6FEE7F8B500246B
:1003A000009490F824202546012A12D0012280F8DA
:1003B00024204A681F23072A0DD20668776B521E35
:1003C00002EB820293409F430B6893401F43776385
:1003D00019E00220F8BD06680D2A0AD2376BD21F39
:1003E00002EB820293409F430B6893401F433763A5
:1003F00009E0F76A0D3A02EB820293409F430B68D3
:1004000093401F43F7620A68072306680A2A0AD343
:10041000F7680A3A02EB420293409F438B6893408D
:100420001F43F76008E0376902EB420293409F43A5
:100430008B6893401F4337610A68102A01D0112A44
:1004400020D1124B02689A4217D193681B0219D42B
:10045000936843F4000393600968102912D10C4992
:100460000C4A0968B1FBF2F101EB8101490000E09F
:10047000491E00910029FBD104E0816A41F020016E
:100480008162012480F824502046F8BD00240140F8
:100490000C00002040420F002DE9F0414FF0000712
:1004A00004003D467ED0A06A002628B9E66284F8A2
:1004B0002460204600F07EF82046FFF731FFA16A55
:1004C000C90600D420B1A06A40F01000A06269E023
:1004D000A16A21F4885141F00201A1626268E169D8
:1004E000237B0A4347EA43010A43A1684FF480771C
:1004F000B94209D0012907D05FF0000194F814C077
:10050000BCF1010F02D00AE03946F7E7F3B1A36A64
:1005100043F02003A362E36A43F00103E36223682C
:10052000D3F804C02CF4694C4CEA010CC3F804C0A5
:1005300021688B68DFF870C003EA0C0313438B60FB
:10054000A168B9420BD0012909D00CE0DFF85CC0EA
:10055000A3690CEB43330B4343F40061DFE7218ACB
:100560000D05A5F580152168CB6A23F470032B4394
:10057000CB62216889680E4B1940914208D1E6622E
:10058000A16A21F0020141F00101A162BDE8F08100
:10059000A06A20F0020040F01000A062E06A40F083
:1005A0000100E0620120F1E7FDF7E1FF00E0FFFF5D
:1005B000FE0E1FFF00B585B0002100910191029150
:1005C000039100680E49884218D10E48816941F4B0
:1005D00000718161816901F400710491816941F0C8
:1005E000040181618069694600F0040004900820DC
:1005F000009003200190044800F032F805B000BDDF
:1006000000240140001002400008014070B504467B
:1006100000F020F90546601C02D00448007804442C
:1006200000F018F9401BA042FAD370BD0000002072
:10063000B0F5806F04D0B0F5805F03D101F0BCBF8E
:1006400001F0FABC70470000044910B50A68024284
:1006500002D00860FFF7ECFF10BD00001404014059
:100660002DE9F84FDFF8B8910024A9F1040B2346D7
:100670000F2709F1040AABF1040EC9E00125A540DA
:100680002A40AA427DD1674ED1F804C0ACEB0608DF
:10069000B44532D014DCBCF1030F3AD009DCBCF114
:1006A000000F2AD0BCF1010F1CD0BCF1020F31D1D8
:1006B0001DE0BCF1110F17D0BCF1120F2AD119E0C7
:1006C000B8F5881F19D006DCB8F5803F15D0B8F50D
:1006D000801F1FD111E0B8F5001F0ED0B8F5041F20
:1006E00018D10AE0CB6815E0CB681B1D12E0CB687F
:1006F00008330FE0CB680C330CE08B682BB1012B77
:100700004FF0080303D0456104E0042302E00561D3
:1007100000E00023FF2A01D8064601E000F10406AC
:100720004FEA840501D9A5F12005D6F8008007FA23
:1007300005FC28EA0C0803FA05F548EA0508C6F89E
:1007400000804D68ED0062D5374DAE6946F0010678
:10075000AE61AD6924F0030605F001050095334D47
:1007600006EB050CDCF80850A607360F07FA06F86A
:1007700025EA0805DFF8B880404503D14FF00008AE
:1007800017E044E0DFF8AC80404502D14FF00108AB
:100790000FE0DFF8A480404502D14FF0020808E0E6
:1007A000DFF89880404502D14FF0030801E04FF098
:1007B000040808FA06F848EA0508CCF808804D68ED
:1007C000D9F80060ED024D4601D5164300E096438E
:1007D0002E604D68DAF80060AD02554601D516432B
:1007E00000E096432E604D68DBF80060AD035D4687
:1007F00001D5164300E096432E604D68DEF8006098
:10080000ED03754601D5164300E096432E60641C47
:100810000D682A46E5407FF431AFBDE8F88F00004F
:1008200008040140000011100010024000000140C7
:1008300000080140000C014000100140001401407C
:100840008068084000D0012070470AB101617047FC
:100850000904FBE7014880687047000000000020A1
:1008600070B5040025D094F83D00002520B984F827
:100870003C50204600F04EF9242084F83D002068CA
:10088000016821F0010101602068016841F4004124
:1008900001602068016821F40041016000F0E0FB84
:1008A0004D4A6168914201D84C4900E04C49884268
:1008B00001D2012070BD4B492368B0FBF1F15E68A5
:1008C00026F03F060E435E606368934206D94FF4FC
:1008D000967359434FF47A73B1FBF3F12368491CC3
:1008E0001E6A26F03F06314319626168914210D8B2
:1008F0004900401EB0FBF1F2521CC2F30B02042A65
:1009000001D2042022E0B0FBF1F0401CC0F30B0048
:100910001CE0A268F2B301EBC10303EB0116431E16
:10092000B3FBF6F35B1C43F480431B0549D092B341
:1009300001EBC10202EB0111401EB0FBF1F0401CC3
:10094000C0F30B0040F4804040F400402168CA69C5
:100950004CF6FF739A431043C861D4E90710014372
:100960002068026822F0C00211430160D4E903014B
:1009700001432068826848F2FF339A431143816043
:10098000D4E9050108432168CA6822F0FF02104338
:10099000C86001E00EE016E02068016841F0010146
:1009A00001602564202084F83D00256384F83E50D2
:1009B000002070BD01EB4106431EB3FBF6F35B1C48
:1009C000B3E70120C2E701EB4101401EB0FBF1F0AB
:1009D000401CC0F30B00B7E7A086010080841E0016
:1009E00000093D0040420F002DE9F84F1F46904698
:1009F0008A460446DDF82890FFF72CFF054694F858
:100A00003D0020287FD1192301224049204600952E
:100A100001F0B0F9002876D194F83C00012872D09A
:100A2000012084F83C0020680168C90703D10168EF
:100A300041F0010101602068016821F4006101605A
:100A4000212084F83D00102084F83E000026266412
:100A5000C4F824806785608D20852D48E0622B4690
:100A60004A465146204601F00BF990B92068416989
:100A70008069009036E02A464946204601F020FA77
:100A800050B1206C042804D12068016841F4007141
:100A900001600120BDE8F88F606A21680078086174
:100AA000606A401C6062618D491E6185218D491E0E
:100AB00089B2218522685369DB435B070BD451B1AE
:100AC00000781061606A401C6062608D401E608525
:100AD000208D401E20852A464946204601F01EF9F9
:100AE0000028CED1208D0028C5D154F83D0B0168D7
:100AF00041F400710160202004F81E09E677667752
:100B00000020C7E7FFE70220C4E700000200100052
:100B10000000FFFF10B586B0002100910191029105
:100B2000039100680F4988421AD10F4CA06940F028
:100B30000800A061A069694600F008000490C02088
:100B4000009012200190032003900848FFF788FDD1
:100B5000E06940F40010E061E06900F400100490E6
:100B600006B010BD0054004000100240000C0140CF
:100B700002488168027811448160704700000020BB
:100B8000074810B5016841F010010160032000F032
:100B9000A7F80F2000F006F800F050F8002010BD74
:100BA0000020024030B505461F4887B0C16941F0BA
:100BB0000401C161C06906A900F00400009001A809
:100BC00000F02EFA0498B0B100F04AFA400017493C
:100BD000174AB0FBF1F11748491E0260416040F22C
:100BE000E7320021C0E903218160816100F000FD4E
:100BF000040003D015E000F033FAE8E70D4800F0F8
:100C000043FD04000DD11E2000F03CF8102D07D24A
:100C1000002229461E2000F043F80748056000E046
:100C2000012407B0204630BD0010024040420F00B2
:100C3000000800400C090020040000200F4808B5FF
:100C4000816941F001018161816901F00101009137
:100C5000C16941F08051C161C069002200F080503B
:100C600000900F21901E00F01BF80548416821F00C
:100C7000E06141F00071416008BD000000100240D9
:100C800000000140002809DB00F01F020121914013
:100C90004009800000F1E020C0F80011704700001A
:100CA000F0B40E4B1B680C46C3F30223C3F10705D7
:100CB000042D00D90425191D072901D2002300E0C5
:100CC000DB1E012606FA05F1491E214099409E408F
:100CD000761E16403143F0BC01F051BF0CED00E030
:100CE000064900F0070208684FF6FF03184040EA83
:100CF0000220034A10430860704700000CED00E03A
:100D00000000FA052DE9F04186B0040004D094F803
:100D1000A902002520B108E0012006B0BDE8F0815D
:100D200084F8A852204600F05BF8032084F8A9025A
:100D3000206801F01AFF04F1100114228846684669
:100D4000FFF77DFA94E80F0001F002FF0227D0BB05
:100D50000021206801F010FF002001260EE000BFF6
:100D600000EB800104EBC10181F8296001F8280F34
:100D7000401CCD700D614D61C0B28D6161688142D2
:100D8000EED8002012E000BF00EB800104EBC101AF
:100D900081F8695181F8680181F86B51C1F8785187
:100DA000C1F87C51401CC0B2C1F8805161688142D9
:100DB000EAD8142241466846FFF741FA94E80F004A
:100DC00001F0CAFE10B184F8A972A5E784F8245096
:100DD00084F8A962206801F0BDFE00209DE70000B4
:100DE00008B500680649884208D10648C16941F43F
:100DF0000001C161C06900F40000009008BD00005E
:100E0000005C0040001002402DE9F84305460078E0
:100E1000354CC00754D0E0690026C00008D4E06912
:100E200040F08050E061E069012600F080500090C1
:100E30002E480168C90512D40168804641F48071CA
:100E40000160FFF707FD074605E000BFFFF702FD61
:100E5000C01B642823D8D8F80000C005F6D5206A46
:100E600010F4407021D0A98801F4407181421CD057
:100E7000206A1F49012220F440700A6000220A60A3
:100E80002062C00711D0FFF7E5FC074641F2883821
:100E900008E000BFFFF7DEFCC11B414502D903207B
:100EA000BDE8F883206A8007F4D5206A696820F4D9
:100EB0004070084320621EB1E06920F08050E0617C
:100EC0002878800705D56068A96820F44040084369
:100ED00060602878C00605D56068E96820F4800065
:100EE000084360600020DBE7001002400070004013
:100EF000400442422DE9F0470F46050061D0434EC1
:100F0000306800F00700B84209D2306820F00700CE
:100F100038433060306800F00700B84251D128688B
:100F20003B4C810712D5400703D5606840F4E06070
:100F300060602878000703D5606840F46050606006
:100F40006068A96820F0F000084360602878C00756
:100F500028D06868012810D02168022810D089079D
:100F600000292EDA616821F0030101436160FFF777
:100F700071FC804641F288390DE021688903EFE772
:100F80008901EDE7FFF766FCA0EB0801494502D9AE
:100F90000320BDE8F0876068696800F00C00B0EBE2
:100FA000810FEFD1306800F00700B8420BD93068EC
:100FB00020F0070038433060306800F00700B84286
:100FC00001D00120E5E72878400705D56068E96889
:100FD00020F4E060084360602878000706D5606868
:100FE000296920F4605040EAC100606000F058F8C0
:100FF0006168084AC1F30311515CC84006490860A2
:1010000006480068FFF7CEFD0020C2E7002002403E
:1010100000100240AA4000080C000020040000203C
:101020000F2202600C4A536803F0030343605368C5
:1010300003F0F0038360536803F4E063C360526815
:101040004FF4E06303EAD20202610448006800F052
:1010500007000860704700000010024000200240B6
:101060000448054900684968044AC1F30221515CFB
:10107000C84070470C00002000100240BA40000831
:101080000448054900684968044AC1F3C221515C1B
:10109000C84070470C00002000100240BA40000811
:1010A0000E4A51680E4801F00C03042B11D0082B96
:1010B0000FD10C48C1F38343C903C05C0AD5516802
:1010C000084AC1F34041921E515C054A5043B0FBAF
:1010D000F1F0704704494843704700000010024097
:1010E00000127A009A40000800093D002DE9F84FEF
:1010F000040070D02078C04DC00749D06868C0F3A4
:101100008100012807D06868C0F38100022809D156
:101110006868C00306D52868800339D56068002850
:10112000E7D035E06068B0F5803F0BD010B1B0F586
:10113000A02F11D0286820F480302860286820F47F
:10114000802002E0286840F480302860606890B118
:10115000FFF780FB06460AE0286840F480202860FC
:10116000F0E700BFFFF776FB801B642873D8286880
:101170008003F7D50CE0FFF76DFB064605E000BFE6
:10118000FFF768FB801B6428F0D828688003F7D439
:1011900020789A4E80074FF001094FF0000839D5AA
:1011A000686810F00C0F07D06868C0F3810002284F
:1011B00009D16868C00306D42868800714D520695F
:1011C000012808D110E02069B0B1C6F80090FFF7FF
:1011D00041FB074605E00AE1FFF73CFBC01B022884
:1011E000C4D828688007F7D52868616920F0F8001E
:1011F00040EAC10028600DE0C6F80080FFF72AFB36
:10120000074604E0FFF726FBC01B022823D8286806
:101210008007F7D4207800072CD57948A169D9B187
:10122000C0F80090FFF716FB074604E0FFF712FB3B
:10123000C01B02280FD8686A8007F7D571484FF4A1
:10124000FA510068B0FBF1F0009000BF0098411E19
:101250000091FAD20EE080E0C0F80080FFF7FAFAC1
:10126000074604E0FFF7F6FAC01B022875D8686A43
:101270008007F7D42078400760D5E8690027C000D0
:1012800008D4E86940F08050E861E869012700F07F
:10129000805000905C480168C90513D401688346FA
:1012A00041F480710160FFF7D5FA824606E000BF85
:1012B000FFF7D0FAA0EB0A0064284ED8DBF8000054
:1012C000C005F5D5E06801280AD008B1052813D07B
:1012D000286A20F001002862286A20F0040002E059
:1012E000286A40F001002862E06841F2883B98B12A
:1012F000FFF7B0FA82460BE0286A40F0040028624B
:10130000EEE700BFFFF7A6FAA0EB0A0159455AD84D
:10131000286A8007F6D50CE0FFF79CFA824605E0C4
:10132000FFF798FAA0EB0A0159454CD8286A8007C4
:10133000F6D41FB1E86920F08050E861E06988B315
:101340006968C1F38101022944D00228C6F860808F
:1013500004D0FFF77FFA044638E034E0FFF77AFA6A
:10136000074604E0FFF776FAC01B02282BD828684E
:101370008001F7D4206AB0F5803F05D16868A16884
:1013800020F4003008436860D4E908010843696824
:1013900021F4741108436860C6F86090FFF75AFAA8
:1013A000044606E025E000BFFFF754FA001B0228C0
:1013B00009D828688001F7D51BE000BFFFF74AFA7B
:1013C000001B022802D90320BDE8F88F286880019D
:1013D000F4D40EE00128F7D06868226A00F4803166
:1013E000914204D1616A00F47010884201D001205A
:1013F000EAE70020E8E70000001002400000424257
:10140000800442420C0000200070004070B50400CF
:1014100009D0606A002540B125616561A56294F834
:10142000510040B10CE0012070BD6068B0F5827FD2
:10143000F4D0E561F2E784F85050204600F040F81F
:10144000022084F851002068016821F04001016009
:10145000A088218900F4827001F404410843A18925
:1014600001F400610843217C01F002010843217D61
:1014700001F001010843218B01F400710843217F31
:1014800001F03801084394F8201001F0800108436E
:10149000218D01F40051084321680860A0690421EE
:1014A00001EA1040216848602068C16921F40061A8
:1014B000C1616565012084F85100002070BD000005
:1014C00030B585B000240094019402940394006820
:1014D0001449884223D11448816941F480518161C3
:1014E000816901F480510491816941F004018161B5
:1014F00080690E4D00F004000490A02000900220AE
:1015000001900320039069462846FFF7A9F8402080
:10151000CDE90004694628460294FFF7A1F805B01A
:1015200030BD0000003001400010024000080140C2
:101530007047704710B590F83C20012A22D0012254
:1015400080F83C20CA688C6822F4407222434C68C0
:1015500022F4806222430C6822F4006222430C6968
:1015600022F4805222434C6922F400522243C9697A
:10157000002322F480420A4301684A6480F83C3028
:10158000002010BD022010BD70B590F83C20012A4B
:1015900026D0012480F83C40022280F83D200368D8
:1015A0005A689D6822F070060A6832435A600D4BF3
:1015B00002689A4208D0B2F1804F05D00A4B9A4295
:1015C00002D00A4B9A4204D1496825F0800319439E
:1015D000916080F83D40002180F83C10084670BDC5
:1015E000022070BD002C01400004004000080040B3
:1015F00010B5040003D094F83D0010B107E00120BD
:1016000010BD002084F83C00204600F01FF80220A6
:1016100084F83D00211D206801F030F9012084F894
:10162000460084F83E0084F83F0084F8400084F8C7
:10163000410084F8420084F8430084F8440084F8B0
:10164000450084F83D00002010BD000008B50C4A9C
:1016500001680C48914207D1816941F400618161C0
:10166000806900F4006009E0B1F1804F07D1C169E1
:1016700041F00101C161C06900F00100009008BDA6
:10168000002C01400010024090F83D10012901D0CB
:1016900001207047022180F83D100168CA6842F0BD
:1016A0000102CA6000680B49884208D0B0F1804F3F
:1016B00005D00949884202D00849884204D181688E
:1016C00001F00701062903D0016841F00101016022
:1016D00000207047002C014000040040000800403A
:1016E00070B5044690F83C000025012817D001266B
:1016F00084F83C60022084F83D002068826822F073
:10170000770222F47F4282600868502838D00DDCCE
:1017100020284FD005DC90B3102811D14AE00220D8
:1017200070BD302846D040280AD13BE060282FD039
:1017300070280DD0B0F5805F03D0B0F5005F12D0F7
:10174000012584F83D60002084F83C00284670BDE7
:10175000CB68D1E90121206801F0C6F820688168D2
:1017600041F0770109E0CB68D1E90121206801F05F
:10177000BBF82068816841F480418160E1E719E0AD
:10178000CA684968206801F063F95021206806E0C2
:10179000CA684968206801F06CF96021206801F08E
:1017A000ADF8CEE7CA684968206801F051F94021D8
:1017B0002068F4E7226801461046F0E7704770B5EC
:1017C0000446006801694FF00005C943890715D434
:1017D000C168C943890711D4E91E0161012020773E
:1017E000206880698007204602D0FFF7E7FF04E009
:1017F00000F00EF9204600F0B3F925772068016962
:10180000C943490717D4C168C943490713D46FF0C6
:1018100004010161022020772068806910F4407F74
:10182000204602D0FFF7CAFF04E000F0F1F820469E
:1018300000F096F9257720680169C943090716D495
:10184000C168C943090712D46FF00801016104207F
:1018500020772068C0698007204602D0FFF7AEFFDE
:1018600004E000F0D5F8204600F07AF925772068EA
:101870000169C943C90617D4C168C943C90613D44D
:101880006FF010010161082020772068C06910F412
:10189000407F204602D0FFF791FF04E000F0B8F847
:1018A000204600F05DF9257720680169C943C90722
:1018B00008D1C168C943C90704D1891E0161204606
:1018C00000F050F920680169C943090609D4C168CC
:1018D000C943090605D46FF0800101612046FFF776
:1018E00027FE20680169C943490609D4C168C94374
:1018F000490605D46FF040010161204600F03CF933
:1019000020680169C94389060BD4C168C9438906A7
:1019100007D46FF0200101612046BDE87040FFF759
:1019200008BE70BD70B586B0002100910191029192
:1019300003910068304B31490224314A984211D159
:10194000886940F0040088618869039400F004000D
:1019500004908815CDE9000469461046FEF780FE24
:1019600006B070BD274E284DB0F1804F1BD0274ADE
:101970009042F5D1886940F008008861886969461D
:1019800000F0080004901020CDE9000430460394D4
:10199000FEF766FE686820F4406040F0E06040F4C6
:1019A00000606860DCE7886940F00400886188694D
:1019B00000F004000490886940F00800886188699C
:1019C000694600F00800049048F20400CDE90004E4
:1019D00010460394FEF744FE0820CDE90004694652
:1019E00030460394FEF73CFE686820F4407040F0F7
:1019F000E06040F48070D4E7002C01400010024009
:101A000000080140000C01400000014000040040BB
:101A1000704770B5044690F83C0000260D4601283A
:101A20000FD0012084F83C006AB1042A1DD0082A96
:101A30002FD00C2A3FD00126002084F83C003046ED
:101A400070BD022070BD206800F060FF20688169D1
:101A500041F0080181612068816921F00401816100
:101A6000206881692A69114311E0206800F076FF3F
:101A70002068816941F4006181612068816921F4F5
:101A800080618161206881692A6941EA022181615E
:101A9000D2E7206800F08EFF2068C16941F008019C
:101AA000C1612068C16921F00401C1612068C16978
:101AB0002A69114311E0206800F0A8FF2068C1697D
:101AC00041F40061C1612068C16921F48061C16194
:101AD0002068C1692A6941EA0221C161ACE710B5F9
:101AE000040003D094F83D0010B107E0012010BDC0
:101AF000002084F83C00204600F01EF8022084F804
:101B00003D00211D206800F0B9FE012084F8460048
:101B100084F83E0084F83F0084F8400084F84100D7
:101B200084F8420084F8430084F8440084F84500B7
:101B300084F83D00002010BD08B5006806498842C1
:101B400008D10648C16941F00201C161C06900F0D5
:101B50000200009008BD0000000400400010024098
:101B60007047000000680349884201D1FFF700B8C0
:101B70007047000000080040704770B5040004D0B2
:101B800094F84100002510B106E0012070BD84F8F2
:101B90004050204600F024F8242084F841002068BA
:101BA000C16821F40051C160204600F075FF206833
:101BB000016921F4904101612068416921F02A0105
:101BC00041612068C16841F40051C1606564202012
:101BD00084F8410084F842006563002070BD000075
:101BE00030B585B0002400940194029403940068F9
:101BF0001449884224D11448816941F480418161AB
:101C0000816901F480410491816941F0040181619D
:101C100080690E4D00F0040004904FF400700090B5
:101C2000022001900320039069462846FEF718FD24
:101C30002815CDE90004694628460294FEF710FDF8
:101C400005B030BD003801400010024000080140DE
:101C5000FEE701684A69D24352050FD46FF48062EF
:101C60004A61002140F8301F2022427381730269CB
:101C700042F00402026101730120704700207047A6
:101C8000F8B50446C06A1E460D461746082807D018
:101C9000012805D010F5803F02D0206B122804D116
:101CA0002068016841F480710160134600224FF002
:101CB00001112046009600F05DF840B120680068F0
:101CC000C00502D54FF4007020640320F8BD2069E0
:101CD000B0F5804F0ED00620216800EAD51040F004
:101CE000F000086133463A460B49204600F08AF876
:101CF00078B902E005F0FE0000E0E8B22168086172
:101D0000054933463A46891F204600F07BF80028F3
:101D1000DCD00120F8BD00000800010070B51646B7
:101D20000D4604461EE02046FFF793FF08B1012050
:101D300070BD681C16D0FEF78DFD801BA84200D830
:101D400085B920684069C04340070BD5002044F89E
:101D5000300F20216173A073216941F020012161BE
:101D60002073E4E720684069C0434007DBD40020CB
:101D700070BD00002DE9F047984617460D46044611
:101D8000C1F30746DDF820902AE000BFB8F1FF3F1D
:101D900026D0FEF75FFDA0EB0901414502D8B8F15E
:101DA000000F1DD12068012E16D0806925EA0000A1
:101DB0000004000C12D00020B84211D1002044F8D9
:101DC000300F20216173A073216941F0200121614E
:101DD00020730120BDE8F0874069E7E70120EBE7C9
:101DE0002068012E0AD0806925EA00000004000C5A
:101DF00006D00020B842C9D00020EBE74069F3E7E5
:101E00000120F7E72DE9F047984616460D460446AF
:101E10004FF000094FF0200AC1F3074723E0206884
:101E20004069C043400515D42068016841F4007141
:101E3000016021686FF480604861C4F8309084F8D4
:101E40003DA084F83E90216C41F00401216484F8A7
:101E50003C9021E0701C06D0FEF7FCFCA0EB0800D3
:101E6000B04203D816B1012F1FD021E02068012F06
:101E700015D0806925EA00000004000C18D000BFCE
:101E800044F8309F84F80DA084F80E90216941F049
:101E90002001216184F80C900120BDE8F0874069A1
:101EA00025EA00000004000CEAD12068406901E046
:101EB0002068806925EA00000004000CAFD1ECE73F
:101EC00070B516460D4604461EE02046FFF7C1FEDB
:101ED00008B1012070BD681C16D0FEF7BBFC801B4A
:101EE000A84200D885B920684069C04300060BD5D8
:101EF000002044F8300F20216173A073216941F064
:101F0000200121612073E4E720684069C043000696
:101F1000DBD4002070BD00002DE9F84FDFF8FC9005
:101F200000224846DFF8F8C0D0E90261D9E9004054
:101F30000B46341B61EB0001501EB4EB0C0C154634
:101F4000174671F1000C5ED3DFF8D8804FF0000C1B
:101F5000B8EB04047CEB010C55D34C46D4E904C126
:101F6000BCEB060661EB03012F4BF31A71F1000382
:101F700049D3DFF8B8C00023BCEB06068B4142D33F
:101F800000234FF00309EA4609EB430808F1010C6E
:101F900004EBCC0104EBC80CD1E90061DCE9008C56
:101FA000B6EB080661EB0C015206DFF88480120ED6
:101FB0006D1C4FF0000CB8EB06067CEB010C01D257
:101FC00042F00102082D04D10AF80720002215462C
:101FD0007F1C5B1C202BD7DB9DF80110C943CBB2C3
:101FE0008DF801309DF80310C943CAB28DF8032063
:101FF0009DF80010994203D19DF80230934204D01D
:102000000C4A00211160BDE8F88F084600F0BEFAC6
:102010009DF8020000F0BAFA0020F4E75013002007
:1020200000127A0080969800E0673500C03B4703B5
:1020300040420F00F00300202DE9F04100F002FEC5
:10204000254C264FD4E90423861A61EB03020023B2
:102050001D46BE1B934100D22560C4E90401204AFD
:10206000236802EBC3065B1CC6E900012360042B56
:1020700006D0442B02D1FFF74FFF2560BDE8F08169
:10208000D2E90260D2E900370146F31A60EB07009B
:10209000144FDF1B70F10007F0D3DFF84CC00027AE
:1020A000BCEB03038741E9D3D2E90402801B62EB56
:1020B00001020E49411A72F10001DFD34FEAAC036D
:1020C0000021181A9141D9D3002000F05FFA0020B6
:1020D00000F05CFAD1E70000F003002000E1F50514
:1020E0005013002000127A008096980080841E0011
:1020F0003EB5002411480094019402940E49846076
:10210000016004730475012505614FF4602144608A
:10211000C161FEF7C1F908B1FEF73EF90320CDE930
:102120000005694602940548FEF738F9002801D0F9
:10213000FEF732F93EBD00000024014020040020DB
:102140002DE9F04786B000244B4800940194029496
:102150000394816941F010018161816901F01001EE
:102160000491816941F020018161816901F02001C0
:102170000491816941F004018161816901F00401E8
:102180000491816941F00801816180693B4F00F051
:1021900008004FF400550490002229463846FEF707
:1021A00054FBDFF8DC90002213214846FEF74DFB7C
:1021B000DFF8D0A04FF40248002241465046FEF717
:1021C00044FB0095022601250396CDE9015469469A
:1021D0003846FEF745FA112700970396CDE90154DA
:1021E00069464846FEF73CFACDE90256CDE900675C
:1021F00069464846FEF734FA03208DE83100694607
:102200005046FEF72DFAA80200901F48CDE90105BF
:1022100069465046FEF724FA1C4F4FF40260CDE9A0
:102220000007694602955046FEF71AFA2803CDE9E1
:102230000007694602945046FEF712FA4FF48240B6
:10224000CDE90004694650460294FEF709FACDF83C
:1022500000800396CDE9015469465046FEF700FA26
:10226000002205212820FEF71BFD2820FEF70AFD8D
:1022700006B0BDE8F08700000010024000100140E9
:1022800000080140000C0140000031100000111056
:102290000D4810B50B4901600C49416000214FF415
:1022A00080428160C0E9031241618161C1610162C4
:1022B000FEF7D6FA002803D0BDE81040FEF76CB850
:1022C00010BD00000054004050040020A086010012
:1022D000104810B50E4901604FF482714160002131
:1022E0008160C1604FF400720161C0E905120822EB
:1022F000C0E90721416281620A21C162FFF786F8C5
:10230000002803D0BDE81040FEF746B810BD00001D
:1023100000300140A404002010B596B000240F94B2
:1023200010941194129413941C2108A81494FDF78E
:102330009FFF20216846FDF79BFF2A48284901603E
:102340004721C0E9011440F2E731C0E903148021BC
:10235000C0E90541FFF74CF908B1FEF71DF84FF44D
:1023600080500F900FA91F48FFF7BAF908B1FEF788
:1023700013F81C48FFF7B3FB08B1FEF70DF81394F0
:1023800013A918481494FFF7FFF808B1FEF704F8F2
:102390006020089040F2F310CDE909040B940C94EE
:1023A0000D94002208A90F480E94FFF732FB08B1E4
:1023B000FDF7F2FF00944FF40050CDE90440029481
:1023C00001940394694607480794FFF7B3F808B1EE
:1023D000FDF7E2FF0348FFF7A5FA16B010BD0000B5
:1023E000002C0140FC04002010B58EB0002407949E
:1023F000089409940A940B941C2168460C94FDF7E8
:1024000037FF27484FF08041016040F26711C0E973
:10241000011440F2CF71C0E9031480218161FFF7FC
:10242000E7F808B1FDF7B8FF4FF48050079007A90F
:102430001B48FFF755F908B1FDF7AEFF1848FFF745
:102440004EFB08B1FDF7A8FF0B940BA914480C94A0
:10245000FFF79AF808B1FDF79FFF6020CDE900046F
:102460000294002269460E480494FFF7D2FA08B19C
:10247000FDF792FF042269460948FFF7CAFA08B13E
:10248000FDF78AFF082269460548FFF7C2FA08B13E
:10249000FDF782FF0248FFF745FA0EB010BD0000BD
:1024A0004405002010B58AB0002407941C2168461A
:1024B0000894FDF7DDFE1848164901600721C0E9C0
:1024C000011440F2E731C0E9031480218161FFF774
:1024D00006FB08B1FDF760FF079407A90E480894B2
:1024E000FFF752F808B1FDF757FF602000904FF456
:1024F0006170CDE901040022694607480494FFF7A2
:1025000088FA08B1FDF748FF0348FFF70BFA0AB055
:1025100010BD0000000400408C0500200C4810B5E0
:102520000A4901604FF4E1314160002181600C22D1
:10253000C160C0E904128161C161FFF71EFB002880
:1025400003D0BDE81040FDF727BF10BD00380140A3
:10255000D40500200B4810B50949016008214160ED
:102560000221816000218161C1610162FEF7CAFB25
:10257000002803D0BDE81040FDF70EBF10BD0000DD
:10258000005C00401C060020FEE7FEE7084B10B58B
:1025900099680A46491CCC1701EB546424F07F0467
:1025A000091B5C68A14202D0024CA054996010BD86
:1025B000F0030020D01200202DE9F04100F042FB92
:1025C00006460D46022000F01FFB134F4FF48051CA
:1025D0003846FEF735F9002816D0104CD4E904012E
:1025E000321A65EB01030E480021FDF7E7FD60603C
:1025F00001213846FEF724F90028206806D0401C47
:10260000C4F80000C4E90465BDE8F081401E206004
:10261000606840426060F5E7000C0140080400205B
:1026200000CA9A3B2DE9FC415D485C4A818989B228
:10263000CDE9001201898BB2818800888AB281B20B
:10264000584800F0BBFC5648574A1030818989B27F
:10265000CDE9001201898BB2818800888AB281B2EB
:10266000504800F0ABFC4E4C5049103C606800EB09
:10267000800001EB400304F13000818800888AB2B9
:1026800081B2484800F08CFC4949A1F11500B0F82E
:10269000A42092B2CDE90021B0F8A0108BB2B0F81E
:1026A0009C10B0F898008AB281B23E4800F086FCD7
:1026B0004049A1F11500B0F8A42092B2CDE9002163
:1026C000B0F8A0108BB2B0F89C10B0F898008AB2A5
:1026D00081B2344800F072FC3749A1F11500B0F81E
:1026E000A42092B2CDE90021B0F8A0108BB2B0F8CE
:1026F0009C10B0F898008AB281B22A4800F05EFCC3
:102700002E49A1F11500B0F8A42092B2CDE9002124
:10271000B0F8A0108BB2B0F89C10B0F898008AB254
:1027200081B2204800F04AFC2549A1F11500B0F81B
:10273000A42092B2CDE90021B0F8A0108BB2B0F87D
:102740009C10B0F898008AB281B2164800F036FCAE
:102750000F260096207804F10807A378395C627888
:10276000104800F0C9FA00250096795DA3786278D8
:102770000C4800F0A1FA6D1C052DF5DB084830303F
:10278000818989B2009101898BB2818800888AB2DF
:1027900081B2044800F0D0FABDE8FC81F04900089D
:1027A00074030020740D00200E4A00082C4A000813
:1027B00031000020D90000208101002029020020E2
:1027C000D102002010B5502080F31188BFF34F8F45
:1027D000BFF36F8F01F0FCFB18B104494FF080503C
:1027E0000860002080F3118810BD000004ED00E0B7
:1027F00030B593B028216846FDF73AFD14210AA8A8
:10280000FDF736FD002401200F941094119401046B
:1028100012948DE8130004904FF4E010CDE90810F5
:10282000022507956846FEF761FC08B172B6FEE71F
:102830000F20CDE90A054FF48060CDE90C4002215C
:102840000AA80E94FEF756FB08B172B6FEE71220F6
:102850000F904FF40040CDE911040FA8FEF7D4FA11
:10286000002801D072B6FEE713B030BD70470000FB
:102870000148FEF7A4BF00000C090020F0B5026873
:10288000164B174C174D4FF08047984205D0B84271
:1028900003D0A04201D0A84203D122F070064A68BA
:1028A0003243984205D0B84203D0A04201D0A8429A
:1028B00003D122F44074CA6822434C6922F080029A
:1028C000224302608A68C2620A688262984201D129
:1028D0000969016301214161F0BD0000002C014044
:1028E000000400400008004010B5846842EA03225A
:1028F00024F47F440A432243826010BD826822F0A0
:1029000070020A4342F007018160704730B5036AE4
:10291000026A22F0010202624268846924F07305AF
:102920000C682C4323F002058B682B430A4DA84208
:102930000BD123F00805CB6822F440722B434D697C
:1029400023F0040315438A692A434260846149687D
:102950004163036230BD0000002C014030B5026AC3
:10296000036A23F010030362436884690D6824F44A
:10297000E64444EA05248D6822F0200242EA05126A
:102980000B4DA8420ED1CD6822F0800242EA05121A
:102990004D6923F4406343EA85038D6922F04002C8
:1029A00043EA85034360846149688163026230BD04
:1029B000002C014030B5036A026A22F48072026280
:1029C0004268C46923F4007324F073050C682C4337
:1029D0008D6843EA05230C4DA8420ED1CD6823F43F
:1029E000006343EA05234D6922F4405242EA05128E
:1029F0008D6923F4806342EA05124260C46149682C
:102A0000C163036230BD0000002C014030B5046A90
:102A1000026A22F4805202624268C3690D6823F49C
:102A2000E64343EA05238D6824F4005444EA053460
:102A3000064DA84204D14D6922F4804242EA851233
:102A40004260C36149680164046230BD002C0140EA
:102A500010B5036A046A24F001040462846924F056
:102A6000F00444EA021423F00A020A438461026279
:102A700010BD10B5036A046A24F01004046284696E
:102A800023F0A00324F4704444EA023243EA011123
:102A90008261016210BD000070B5044600680169E2
:102AA000E26821F44051114301612169A0680843A3
:102AB000616908432168CA6841F20C639A43024382
:102AC000CA6020684169A26921F4407111434161E3
:102AD0001E492068884202D1FEF7D2FA01E0FEF7D3
:102AE000BFFA00EBC00101EB0012606864218000B6
:102AF000B2FBF0F3B3FBF1F36FF018067343B2FBD4
:102B0000F0F5B2FBF0F605EB8305322303EB051578
:102B1000B5FBF1F5B6FBF1F605F0F00505EB061592
:102B2000B2FBF0F6B2FBF0F0B0FBF1F06FF0180280
:102B3000504306EB800003EB0010B0FBF1F021687E
:102B400000F00F002844886070BD0000003801408C
:102B50000020704700207047012120F8401F00210D
:102B60000180818001820846704730F8401F21F4BF
:102B70003F4101800020704700207047FEE70907B1
:102B8000090E002804DB00F1E02080F800147047F3
:102B900000F00F0000F1E02080F8141D704702E003
:102BA00008C8121F08C1002AFAD1704770470020D8
:102BB00001E001C1121F002AFBD17047FDF7E0FFC1
:102BC000FFF716FEFFF7BCFAFFF762FBFFF790FA7C
:102BD000FFF77EFBFFF7BEFCFFF79EFBFFF704FC51
:102BE000FFF760FCFFF79AFC00F068FB054800F077
:102BF0004BF8FFF717FD034800F04BFA3220FDF7C2
:102C000005FDF3E7740D002070B5054600244FF470
:102C10007A7603E0304601F06DF9641CAC42F9DBD2
:102C200070BD000006484168096829B14168C9685B
:102C3000C9684968016370474FF0FF31FAE7000047
:102C4000B40300202DE9F0410D4CFDF703FE22688E
:102C50000023516AD26A0B4DA0FB054703FB0575A3
:102C600000FB0355074FA1FB070C03FB07C701FB44
:102C70000371FDF7A3FA00196941BDE8F081000076
:102C80000C09002040420F0001680A7C90F83810BF
:102C9000406B5143C900FDF7EBBA10B5044600F094
:102CA000B3F9204600F0D6F90028FAD12046BDE855
:102CB0001040002100F0F6B92DE9F8431C4680468B
:102CC0001019401C80B200900819401C83B21546B0
:102CD000101B82B20E46081B81B2089F404600F0CE
:102CE000A1F9002806D023462A46314640460097DF
:102CF00000F006FBBDE8F8832DE9F8431C4680464A
:102D00001019401C80B200900819401C83B215466F
:102D1000101B82B20E46081B81B2089F404600F08D
:102D200081F9002806D023462A46314640460097BE
:102D300000F078FBBDE8F8832DE9F84F83460A9E42
:102D40009A46901980B201EB0A04009015460F468E
:102D5000A3B2584600F066F900282FD04FF00009C2
:102D600053462A4639465846CDF8009000F060F8A0
:102D7000022E23D3B61E360405F10105360CADB282
:102D800014D04FF0010833462A4639465846CDF84C
:102D9000008000F04DF8641EA1B233462A46584622
:102DA000CDF8008000F044F8A81985B253462A46B1
:102DB00039465846CDF8009000F03AF8BDE8F88F53
:102DC0002DE9F041044690F870001F4615460E4666
:102DD00030B1012809D002280CD0032815D10FE00A
:102DE000E16D20468847284408E0E16D2046884789
:102DF000301A09E0E16D20468847281A85B204E0C0
:102E0000E16D20468847304486B22846A4F86460C5
:102E1000A4F8660039460025204600F0DFFC0100DA
:102E200003D0204600F00AFC85B22846BDE8F081B8
:102E30003FB581B0044690F88C00089900283AD03C
:102E4000BDF81000002836D0012811D9022902D07F
:102E5000032907D00CE0BDF80820101A401CADF87B
:102E6000080005E0BDF80C20101A401CADF80C005D
:102E700011F0010521D0B4F84810BDF808008142D6
:102E800019D8B4F84A10814215D9B4F84E30B4F8C4
:102E90004C2004A90DF10C0000F0F2F900280AD032
:102EA0000095206BBDF81030BDF80C208568BDF88A
:102EB00008102046A84705B030BDB4F84C10BDF846
:102EC0000C008142F7D8B4F84E108142F3D9B4F81F
:102ED0004A30B4F8482004A902A8DDE72DE9FF4FE5
:102EE00081B090F89270DDF838901D46884606460D
:102EF0009FB10020834603984146401C80B2009059
:102F000008EB050083B23046039A00F08BF80028E6
:102F10002BD001244FF0000A23E00120EAE700BF94
:102F200099F80000204202D086F8927004E096F8EA
:102F3000910048B986F892B00123CDF800A041462F
:102F40003046039AFFF774FF08F101001FFA80F87A
:102F5000600010F0FF0402D1012409F101096D1E87
:102F6000ADB2002DDCD186F8927005B0BDE8F08FCF
:102F700008B5B0F84C30934210D8B0F84E309342B8
:102F80000CD9B0F848308B4208D8B0F84A308B42A0
:102F900004D9002300930123FFF74AFF08BD000076
:102FA00030B4024C446030BC00F0E6BA2D3B00085F
:102FB00038B501240094FFF73BFF38BD2DE9F84FE9
:102FC0008246DDE90A57D81DC0F3CC08501980B2FB
:102FD0001C460090081983B216468946504600F0F8
:102FE00021F800280ED00BE02346324649465046D1
:102FF0000097FFF773FF761C6D1E4744B6B2ADB263
:10300000002DF1D1BDE8F88F10B5044690F893007B
:1030100010B12046FFF738FE2046BDE810400021E1
:1030200000F040B870B50D461E460446B0F84E108C
:10303000B0F84C00049B00F02EFC002809D0B4F836
:103040004A10B4F8480033462A46BDE8704000F004
:1030500022BC70BD70B5044600F0ADFC94F8390098
:1030600094F838100844C5B22068407CA84204D8BF
:10307000204600F020FD002070BD94F8930010B1B0
:103080002046FFF701FE2946204600F00BF80120FC
:1030900070BD10B5044600F08EFC2046BDE810401F
:1030A00000F009BD10B5044680F83910006B0168C6
:1030B00020468847206B41682046BDE810400847FD
:1030C00010B50446806D884209D004F17400A165F2
:1030D00000F03CFC2046BDE8104000F055B810BDA3
:1030E0000149C16570470000EF3500080021A0F8D4
:1030F0005010A0F854104FF6FF71A0F85210A0F82D
:103100005610016B4968084770B5044600250498BD
:10311000A565E362616384F8382084F8395084F847
:103120006D5084F8915084F88D50012184F89210EC
:1031300084F8931020630168204688472046FFF7F3
:10314000D5FF2046FFF7CCFF84F8705070BD00001B
:103150007CB50C46009313460546084A084900F022
:10316000BAFC01A800F0ECFB0146064B00949DF868
:1031700004202846FFF7C8FF7CBD0000853C0008FE
:10318000AD3D0008B138000810B5816D00291AD096
:1031900090F9813080F88E3090F9822080F88F206D
:1031A00090F88D1000290ED001290DD090F97E40A5
:1031B00090F980100C449C4201DD80F88E408A42D8
:1031C00001DD80F88F1010BD90F983108B4201DA79
:1031D00080F88E1090F98410F1E72BB1012B05D007
:1031E000022B06D0104402E0084400E0801A80B2AE
:1031F0007047401AFBE72BB1012B05D0022B06D0FC
:10320000401A02E0104400E0084480B27047801A7F
:10321000FBE738B50446B0F856000090B4F85230D9
:10322000B4F85420B4F850102046FFF7FBFE18B352
:10323000012084F88C00B4F84810B4F850008142A2
:1032400001D2A4F84800B4F84A10B4F85200814200
:1032500001D9A4F84A00B4F84C10B4F854008142E3
:1032600001D2A4F84C00B4F84E10B4F856008142D4
:1032700001D9A4F84E0038BD002084F88C0038BD78
:1032800030B504880D882544ADB2AC4205D99C42C6
:1032900002D25D1EADB200E014469C4201D29542BE
:1032A00001D8002030BD944200D214469D4200D97E
:1032B0001D460480281B0880012030BD10B50B4B33
:1032C0000B4A0C490C48FFF743FF0B4800F0EBFB9F
:1032D0000021094800F0F7FB0748FFF7DEFCBDE8D6
:1032E000104006490448FFF7EBBE0000053A00080D
:1032F000693B00088C480008740D0020C24000089B
:103300002DE9FF4FC3F1010083B006B25842914648
:10331000DDF840A040008B4601271C46CDE9009A0D
:1033200000250FFA80F85B462246294615E0002E5C
:1033300008DB08F102000FFA80F8641E06EB0800B3
:10334000A4B206B26D1CBF1C3FB2CDE9009AADB26B
:10335000F01906B25B4622462946039800F005F8AC
:10336000A542E4D307B0BDE8F08F2DE9FF4F83B04D
:103370000E46DDE9108703EB060002901546A8EB28
:103380000600019003EB05001C46F907A8EB050BAE
:1033900000900DD002981FFA8BF281B20398FFF7CC
:1033A000E7FD019882B2009881B20398FFF7E0FD33
:1033B000B907A4EB060AA4EB05090DD51FFA8BF299
:1033C0001FFA8AF10398FFF7D3FD01981FFA89F1DC
:1033D00082B20398FFF7CCFD08EB0504390708EB30
:1033E00006050BD50298A2B281B20398FFF7C0FD83
:1033F0000098AAB281B20398FFF7BAFD78070ED5FC
:10340000A2B21FFA8AF10398FFF7B2FD039807B042
:10341000AAB21FFA89F1BDE8F04FFFF7A9BD07B0C6
:10342000BDE8F08F2DE9FF4FC3F1010083B006B274
:1034300058429146DDF840A040008B4601271C46CB
:10344000CDE9009A00250FFA80F85B46224629460E
:1034500015E0002E08DB08F102000FFA80F8641E68
:1034600006EB0800A4B206B26D1CBF1C3FB2CDE94A
:10347000009AADB2F01906B25B462246294603987F
:1034800000F005F8A542E4D307B0BDE8F08F2DE9C0
:10349000FF4F83B0164610980F46A0EB060B03EBC8
:1034A000070001901098DDF84490A0EB07009846C3
:1034B0005FEAC97103EB060A02F1010507F1010495
:1034C00000900FD00198ABB281B21FFA8BF2039833
:1034D000FFF76EFD0098A3B282B21FFA8AF103983B
:1034E000FFF766FD5FEA8971A8EB0707A8EB060600
:1034F0000DD5ABB21FFA8BF2B9B20398FFF758FDA6
:103500000098A3B282B2B1B20398FFF751FD5FEA0F
:1035100009700DD50198ABB281B2109A0398FFF7EC
:1035200047FDA3B21FFA8AF1109A0398FFF740FDF6
:103530005FEA49700ED5ABB2B9B2109A0398FFF7A3
:1035400037FD109A039807B0A3B2B1B2BDE8F04FAF
:10355000FFF72EBD07B0BDE8F08F38B5C58F049CCE
:103560000094521BC46A92B2A04738BD38B5049C7F
:103570000094FFF7F2FF38BD2DE9F0471C46914655
:103580008846064600F0B2FC00254FF6FF777268C9
:103590002178304690470346B84225D0641CA3F5F5
:1035A0007F40FE38F3D04A4641463046FFF708FCDC
:1035B00096F8701031B1012907D0022908D00329EB
:1035C0000FD10AE008EB000104E009EB000106E07E
:1035D000A8EB00011FFA81F803E0A9EB00011FFA34
:1035E00081F9284485B2D2E72846BDE8F08700205B
:1035F000704710B50C4600F006F80122641EA24088
:10360000801A40B210BD30B50568047B2A78E240CC
:103610006318DBB2082B09D36D1C05602D78C4F14B
:103620000804A5401543083BEAB2DBB201248C40F4
:10363000641E14400373204630BD00002DE9F8439A
:10364000054600F1600400F00CF915F96B6F204697
:10365000E97BFFF7CEFF8146297C2046FFF7C9FFB3
:103660000746697C20466B3DFFF7C3FF804694F90F
:103670000A00002857DDF019404247B2237CA08899
:103680003A464946FFF7A9FDA080237C3A46E088E8
:103690004946FFF7B0FDE080A188277C02460B4633
:1036A00037B1012F0AD0022F40D0032F0FD146E0AF
:1036B00094F90A7030443B449BB207E0891B491CD3
:1036C00094F90A705B1C89B29BB2384480B20090B6
:1036D0002846FFF7A7FC30B30020207284F80900C9
:1036E00095F876102046FFF78EFF814695F8771003
:1036F0002046FFF788FF074600224946284600F08B
:1037000027F801223946284600F022F801212046F8
:10371000FFF779FF0028EFD194F90900B042DFDB11
:10372000A07B85F892004046BDE8F88394F90A70C2
:103730005B1CC91B491C89B29BB2921B04E094F923
:103740000A7033449BB2D21B521C92B2401CBDE79C
:103750002DE9F74F84B00D46049C94F8687094F8F6
:1037600069806034A07AC01BC6B20196B54200D20F
:1037700001954FFA88F279B2A088B4F806B0237C9C
:1037800092468946FFF729FD0290237C524649461E
:103790005846FFF730FD0246069808B1A17B02E0CB
:1037A000607B50B9E17B049880F89210207C0090F7
:1037B000DDE901310498FFF73BFBB54207D3A81BB5
:1037C000C5B208F10100002700F0FF08CAE7781928
:1037D000207284F8098007B0BDE8F08F70B50D46FF
:1037E0000146806D1730FF2D10D8612D02D3B1F83E
:1037F000881003E0412D02D3B1F8861008444178C7
:1038000019B30278AA42F9D1801C70BDB1F88A10B0
:103810000C1826460021304600F019F80444022115
:10382000304600F014F8361DA842F3D34FF6FF726D
:10383000207802EA00216078084306D0A84201D12E
:10384000E01C70BDA0780444F2E7002070BD08447D
:103850004FF6FF720178407802EA0121084480B2F5
:10386000704730B5054600F1600401660020207302
:1038700015F8781F2046FFF7C6FEA072697820462B
:10388000FFF7C1FEE072A87EA07310B10020E073C4
:1038900030BD0120FBE78A4205D2834201D89A421B
:1038A00003D9012070478342F9D8002070470000F7
:1038B000F0B502F007060124B440002590F892E02C
:1038C000E7B2DDF814C02C46BEF1010F01D83D4629
:1038D00000D03C46076822F00702BCF1000F3F7C95
:1038E00007FB02F7BAB2476B3A44114409D1087892
:1038F0005B1E284360401B0401F8010B1B0CF6D132
:10390000F0BD0A78761C2A436240A3F101030A70D5
:1039100016F007069BB206D06A06150E6206140E54
:10392000002BEED1F0BD428F114490F89220012A75
:1039300003D800BF4FF00105F2D04FF00104EFE7CC
:1039400008210170004870475409002070B50546F1
:1039500008782870487868708878A870C878E87007
:10396000087928714879687188790C46A871E079DE
:10397000E871207A2872607A6872A07AA872E07A78
:10398000E872207B2873607B6873A07BA873E07B60
:10399000E873207C287411212046FFF758FF6882C5
:1039A00013212046FFF753FFA88215212046FFF779
:1039B0004EFFE88270BD2DE9F843064690F8387056
:1039C00090F83950006800244FF6FF7890F8119075
:1039D000316830462A460B7C716B04FB03FC1FFAEE
:1039E0008CFC08EACC0C61440091002100F04CF8FA
:1039F000641C6D1CE4B2EDB2BC4201D24D45E7D36C
:103A0000BDE8F88310B51046282905D0292901D032
:103A1000002010BDFCF7FAFD012010BDF0B590F8B4
:103A200038204FF6FF75036805EAC2018187197CCB
:103A300005EAC101418790F8394005EAC401C18710
:103A40005E7CA718B74201D9321B92B205EAC202C6
:103A500020F8401F11444180998A8180D98AC18011
:103A6000F0BDFFF7DBBF0021A0F84810B0F844100C
:103A7000A0F84A10B0F84010A0F84C10B0F842106E
:103A8000A0F84E10FFF7C5BB1CB58DF805108DF8DA
:103A90000620049C8DF804300094012284686B4653
:103AA0000F21A0471CBD30B484680023A44630BC5D
:103AB0001A460A21604730B484680023A44630BC0B
:103AC0001A461021604730B484680023A4460A4691
:103AD00030BC0B2160472DE9F04115460E460446E7
:103AE000069F00F009F86761A660C4E90353204609
:103AF000BDE8F04100F012B8002140F8081B064A6A
:103B0000026042608260C260C17681770161FF21FC
:103B1000017780F820107047B13E000830B4846807
:103B20000023A44630BC1A4609216047080001D092
:103B30000A2801D14FF6FF70704730B404690023A2
:103B4000A44630BC1A461921604713B50122046906
:103B500001AB1721A0471CBD30B404690023A44663
:103B600030BC1A461821604738B5154C182918D0B2
:103B700004DC142922D0172904D105E0192913D017
:103B800020291BD0002038BD0E4907E0A07813F88B
:103B9000015B0D54401C521EA070D2B2002AF5D118
:103BA0000CE00020A07009E04FF48071009190F8C3
:103BB0002410A378034A0448FCF716FF012038BDFF
:103BC00010000020540D00205004002030B4C468C0
:103BD0000023A44630BC1A461921604730B4C4689B
:103BE0000023A4460A4630BC1621604730B4C4689E
:103BF0000023A4460A4630BC1521604730B4C4688F
:103C00001346A4460A4630BC17216047F8B50C4657
:103C10004FEA000514F8011B182924D00EDC1529E1
:103C200019D0162917D0172923D120788DF8000034
:103C30006A4601212846FFF7E1FF0AE0192912D060
:103C4000FE2916D122788DF800202921284600F07F
:103C500031F9641CDEE722788DF80020EE6800233D
:103C60002846B047F5E70023EE681A462846B047D5
:103C7000D0E7F8BD30B4C4680023A44630BC1A466F
:103C8000182160472DE9F041DFF8B0801446064660
:103C9000A1F11402002798F800001D46062A4AD216
:103CA000DFE802F02F03161B3E4310B13046FFF74A
:103CB00044FF3046FFF750FF00213046FFF745FF35
:103CC00021463046FFF741FF012088F8000029E037
:103CD00021463046FFF739FF24E050B13046FFF768
:103CE0002CFF06E01821304600F0EAF8183CE4B258
:103CF0001835182C2A46F5D82146304600F0E0F851
:103D00000EE096F82400FF2802D1782086F82400DF
:103D100037692B4622463046BC46BDE8F041604735
:103D200088F800700120BDE8F0810028F8D0304606
:103D3000FFF703FFF4E70020F5E700001300002081
:103D400070B50023456904461A462821A847002378
:103D5000E5681A4614212046A84701224B21204637
:103D600000F0A8F8206829210279204600F0A2F886
:103D700000224B21204600F09DF82068292102797D
:103D8000204600F097F801224B21204600F092F8DF
:103D90002068292142792046BDE8704000F08AB8A9
:103DA0000160897C80F822107047000070B50C46D5
:103DB000054600F019F888B9092C0BD00A2C01D05F
:103DC000002070BD2846FFF7BBFF05492846FFF7D6
:103DD0001DFF03E003492846FFF7E2FF012070BD05
:103DE000BE480008C04900082DE9F0411E461446AF
:103DF00005460B2908D00D290ED00E291ED00F29FB
:103E000027D00020BDE8F0811AB12849FFF7FEFE57
:103E10004AE02649491FF9E74AB124490C31FFF726
:103E2000F5FE286890F8130085F822003CE01F4951
:103E3000491DFFF7EBFE2868807CF5E7FFF71AFFC6
:103E400081212846FFF7D2FE21462846FFF7C6FE0D
:103E500027E0FFF70FFF707995F8221001EBC00003
:103E6000C7B240212846FFF7C1FE102040EA1711D3
:103E70002846FFF7BBFE07F00F012846FFF7AEFE0E
:103E8000B07940F0B0012846FFF7A8FE30793268DB
:103E9000C006010E2846FFF7B1FE641E14F0FF04B1
:103EA000F4D12846FFF792FE0120ABE79D480008B9
:103EB0000020704730B444690023A44630BC6047FA
:103EC0002DE9F04115460E460446FFF745FE402118
:103ED0002046FFF73AFE27692B4632461721204637
:103EE000B8472046BDE8F041FFF727BE002180F823
:103EF0002610704730B50C4A00211368DC6A4FF475
:103F00007A726043B0FBF2F55A6A586A9042FCD06C
:103F100002D9A0EB020202E0A4EB02020244114427
:103F20000246A942F1D330BD0C090020D0E901328C
:103F300001699A60D0E901235A604A68824201D13E
:103F400082684A60002202610868401E08600868B2
:103F5000704742684A6093688B60936859609160CB
:103F600008610168491C016070470000164810B5DF
:103F7000816B11B10121416210BD00214162816953
:103F8000124A01E0B9B1491E01EB810352F8233016
:103F9000002BF7D001EB810302EB830202F108044E
:103FA00053685B685360A34201D15B685360DA6871
:103FB0000260816110BD502080F31188BFF34F8FE4
:103FC000BFF36F8FFEE70000B4030020080E00204F
:103FD0002DE9F0412E4C0027A06B40B1206A401C17
:103FE0002062606A00B101273846BDE8F081666949
:103FF000761C666113D16068006838B1502080F388
:104000001188BFF34F8FBFF36F8FFEE76068A16821
:104010006160A060A06A401CA062FEF703FE206BF6
:10402000DFF87080864209D36068006880B16068FC
:10403000C068C568686886420DD220632068C06A7F
:1040400000EB800158F821000128CAD90127C8E7F0
:104050004FF0FF30F1E7281DFFF768FFA86A18B19D
:1040600005F11800FFF762FFE86AA169884200D9EC
:10407000A06100EB800108EB8100291DFFF769FFBB
:10408000E86A2168C96A8842CED30127CCE70000DC
:10409000B4030020080E00200102020304050607F5
:1040A00008090A0B0C0D0E0F101000000000000094
:1040B00000000102030406070809000000000102D5
:1040C0000304BF0002020304030504060B00FE08FC
:1040D000FE09FF0144028607AD200500660721079F
:1040E000C14367280122071B57275901230DBD42F1
:1040F000AF4C69A86AA8322500240DCD3E37AF4ADF
:10410000E59D54B52300250CC5422FAAEE8C726A9A
:10411000C904260DC5422FA7987295648A510527B8
:10412000071B574F9500280A533F37C514DB31074B
:10413000290B533F27C71C5B3145002A0AAD46AF08
:104140008E43E694002B0AAD4637A3386446112C03
:1041500007A33ACF2A012D068C4E67042E06124380
:1041600067042F10D53E1F659433CA19E58C72463B
:104170001901300AC4424FA5E99914003108C3421D
:1041800037ADD803320AC44267C55CB64700330C6A
:10419000C44267A39C34CA792400340AC442375A03
:1041A0005D23E604350BC44267E8BC51CE230136DB
:1041B0000BC4424FE5BCA2991400370AC44267E41D
:1041C00032C75C02380BC4424F45995434930239CC
:1041D0000AC4424F4533ED4A013A072A4367C411E6
:1041E0003B08BB3ACF4656093C0ABC423FB6514653
:1041F00019053D089D4A676838043E0BBC4227A359
:104200008C328A6D003F0CC5426FE58C724D67148D
:1042100001400CC5425746B9924A526538410AC41A
:10422000424FAA28C73403420BC44267453952346F
:104230004702430AC4424F45DD991400440AC44270
:1042400047A6D22B4900450AC44267E8BC723D022A
:104250004609444367E8BC721B470AC4424F455DA8
:104260004D99064809C442279A633A0349084343D3
:1042700067C55E034A09C44257B7A54C0A4B0AC436
:1042800042275A49A64E194C08C44227F73D024D11
:104290000CC54227AF91565249DB014E0AC4422752
:1042A000CAB5D429034F09C4424F459F4901500A5A
:1042B000C442674573A45C03510ACC3E4F45E77284
:1042C000A300520AC442674539524F19530CC442E5
:1042D0004F458D32CA482605540FC54267C88C32F7
:1042E000CA28A38C328A005509C44227FA991400BF
:1042F000560BC54227BB5399724611570CC542272E
:10430000BB924A63952901580AC442279A49AA6870
:1043100006590EC54227EB54A69C51461945005A32
:104320000BC44267E498638E79045B08533F67C40B
:104330007E0E5C11D53E27A30C33CA30A30C33CAC2
:1043400030A3005D08533F67F673045E079D563740
:10435000A73A5F068C42670460071B5747E6006177
:104360000AB4424FA334A24C03620AC44227E715A1
:104370009D23016309B4424F455DA3016409C44212
:10438000BF1AD199066509B4424FC5B1331A660AFE
:10439000C44257E538526E02670BC43A6F447368E3
:1043A000391200680AC44227572349670069094B3C
:1043B000432F6624BB066A0A5C3ABFC6BA5B260571
:1043C0006B0BC44227972AC954CA006C0743434762
:1043D000F6356D0BB542E74A2AA9A4922A6E09B4B4
:1043E00042278D249D016F09B4424F4567520070EA
:1043F0000AC43A6745E74839037109C43A6F44670C
:10440000DA057208B44267A47613730AB4426F6483
:104410008DF44800740AC4422FC791721B097508B5
:10442000B442277AA601760BB54227EB54A69C51DD
:1044300004770BB542275B4955332500780AB4420F
:1044400027CA24559401790BC43A279AA9D2314A34
:10445000007A09B44267E4D81E017B0FD53E5F663F
:104460009451D41A66945186027C06D13FE7117D9F
:104470000FD53E47C38C32CA50CB8C328A1A7E0984
:104480009D562FAA241300A0079D4227EB31A107B8
:10449000C13B470D01A20AC43E378ED4CF9900A379
:1044A0000BC5425756796794F318A40AAD4627A75F
:1044B00099E2CA01A50DC54227EB540D1987CC28F6
:1044C00002A607D13F67C411A70ED43A4FC5945531
:1044D0009449A7981400A807135B27A900A90D4EBB
:1044E0003E57C794D4BE952AB304AA0AB44A4FA330
:1044F00034464623AB08A5462FCA141BAC079C467E
:1045000067E402AD050B4F67AE0F4E3E57C794AC44
:10451000B4D2B2928A5902AF068C5E6704B009A485
:10452000524F45991400B10CBD4237A338644699E7
:104530001A02B208AC524FC5E608B30AAC5267A3E0
:10454000A4D14800B4071B57379500B50AC43A27D1
:104550007A8DA43300B60EC5426FA8A42A15534C19
:1045600031C514B706124B6704B809A43A3767344B
:104570001200B9062A536F35BA0AB44A4F45993426
:104580001C01BB09A54627B6A24C00BC0ED53A2F8C
:104590006B1453A953A5E5C809BD0DD53A2F6B146B
:1045A00053A95337CA79BE0ED53A47C31CA3DAA91B
:1045B000D272E404BF0BC53A37A34CB7514E0BC0BF
:1045C0000BCC422FA368C531CD00C10ACC42B796AF
:1045D0002A8E6906C20BCC42B74A52C531CD00C300
:1045E0000BCC422FA968C531CD00C40ECD4247691E
:1045F0006C5623C514534C00C50BCC424FC52455F3
:104600001CD30CC60EC5426F2499621A33C514D34D
:1046100000C70BD43A4F45DD99748C00C80CCC42CE
:104620002FA334745E398F00C90BCC42B71C3AAF4C
:104630009C4700CA0BCC42B71A3BAF9C4700CB0F3C
:10464000CD42476938524619CD8C321A09CC094BF4
:104650004327A715BB06CD094B4337A515BB06CE8F
:10466000094B43AF1A29760DCF0ECD424769BC33B3
:10467000CA28A38CF202D00D45424FA718472A53EF
:104680004CA504D10BCC422FA9722D75CA00D20BB8
:10469000CC422FA3A8A2675200D30ACC42B756D16E
:1046A000332900D40ACC42B74A2A7A2605D50BCC46
:1046B000422FA9A8A2675200D60ECD4247692CAB63
:1046C00098628A294609D709AD4627A7BAAA03D80E
:1046D0000F563E1FC6D99249AAA862393304D90A97
:1046E000CC422FA3D2675200DA09CC42B7E9332972
:1046F00000DB0ACC42B7CA287A2605DC0FCD424738
:104700006958C514534C31C52801DD0DCD42BFCCCD
:104710003AD51965945104DE0BC44227E715E548E4
:104720003903DF09C4424F45D5E912E00CCC422FD2
:10473000A38C354A23CA34E10BCC42B7A6344A23B2
:10474000CA34E20CCC42B7CA50A334A24C03E30CE7
:10475000CC422FA98C354A23CA34E40BCC42AF1B80
:104760006A94469469E50CCC42B78A51A334A24CB2
:1047700003E60CB54247C994868A292A01E70AC490
:104780003A4F455DA35902E80CCC422FA38C551C2F
:104790003BA301E90BCC42B7A6541C3BA301EA0B97
:1047A000CC42B7CA50C5B1331AEB0BCC42AF1BAAEF
:1047B00038764603EC094B43276724BB06ED084BCC
:1047C00043AF86B26BEE084B43AF2DBB06EF094BF0
:1047D0004327A92CBB06F00CC44227258D629266A4
:1047E0005200F10BCC422FA90CD348D219F20BCCBA
:1047F000422FA38C55742605F30ACC42B7A65474F5
:104800002605F40BCC42B7CA5045675200F50BCCD5
:10481000422FA98C55742605F60ACC42AF1BAAE894
:104820004C0AF70CBD4237A34C0D4D651401F80D31
:10483000463E1FC6D9922A96334300F90ACC422F2E
:10484000A30CA3671AFA09CC42B7C6D1330DFB0AF1
:10485000CC42B7CA287AA601FC09CC42AF1B45CF8F
:1048600034FD0CDC3AB7C6D14C958E5102FE0BD408
:104870003A2757C9944BD519FF0CDC3AAF1B453387
:10488000553A460900000004FFFF0000633A0008A3
:10489000673A00086D3500081815AF19FF1815AEF6
:1048A00019FF1815A115C819FF1815A015C019FF73
:1048B0001815A115C019FF1815A015C819FF18154E
:1048C000AE15D5168015A8163F15D3160015401540
:1048D0008D16141520160015A115C815DA16121517
:1048E0008116CF15D916F115DB1640152E15A41516
:1048F000A619FF1815AE15D5168015A8163F15D3A5
:1049000016001540158D16141520160015A115C892
:1049100015DA1612158116EF15D916A115DB16003A
:10492000152E15A415A619FF1815AE15D516801548
:10493000A8163F15D316001540158D161415201610
:104940000015A115C815DA1602158116CF15D9164E
:10495000F115DB1640152E15A415A619FF1815AE76
:1049600015A415D5165015A8163F15D316001540D9
:1049700015AD168B15D9162215DB16351532158196
:1049800016FF15A615DA161219FF1815AE15D5164D
:104990008015A8163F15D316001540158D16141551
:1049A00020160015A115C015DA1612158116CF159F
:1049B000D916F115DB1640152E15A415A619FF0002
:1049C0000001140A6464323200127A00000428964E
:1049D00010080000800040000001140A64643232B4
:1049E00000093D00000428961008020280004000E3
:1049F0007070703838381C1C1C0E0E0E0707070725
:104A000007070E0E0E1C1C1C383838707070070714
:104A1000070E0E0E1C1C1C383838707070707070C9
:104A20003838381C1C1C0E0E0E070707636C6564B3
:104A3000657200000000746F72636800000000007F
:104A400068756D00000000000000636C6F636B0010
:104A5000000000006D6F72650000000000000000A3
:104A6000804A00080000002020040000C80200085E
:104A7000A84C00082004002050150000AE2B0008B0
:104A800032018210D324F4E7636C6564657213010C
:104A9000F02BC003042809FEFFFF1FFFFFFF3F04A8
:104AA00012F72BC03B0412676B803914690422078C
:104AB0006E3877EE9D3B042910091214BC77EE1D69
:104AC0000429146944296CB11AE21432255A1E04CF
:104AD000F6746F726368220232067904120612803D
:104AE000120714C08103142083011A301423700CA0
:104AF00023D818239831101719633C8039C63CC05D
:104B00006C8C0160C61803308331019801E312C038
:104B1000127E1260121F143080012318C01B0C601B
:104B20004A22301A03371A063F1A0C472318032368
:104B3000B00132E0E24032099A1BA8041168756D99
:104B4000193E19031B80043D3A08041420600B141D
:104B500070700B156058CB0F174CCB0F02460B181B
:104B60000B0743CB038641CB03C040181D40CB0F3E
:104B700030041A370C2D3740CB03045A30181AC0B2
:104B8000041B86413013231324029624135C28143B
:104B9000305828143890241C102013F4196423B8BA
:104BA00007D21032319A11A8F6636C6F636B180C40
:104BB00004F8FFFF07FC1FFE0F06C0F312C02330EE
:104BC000332A330422831430C301143083031C308E
:104BD0000307041A0E041A1C041238280A3001F0C4
:104BE00001200DE0FF2D045F01E0012003181C29C6
:104BF00024292C2934194029046950295C29642965
:104C00006C2974B132599A1BA8D008736574746901
:104C10006E6712051AF05913F80714D8F8CF20124E
:104C2000EC3FFF03F43FFF07F83FFE0F7C0FB80F88
:104C30007C10370F78E0810FF0F88707F8FC8F0FB2
:104C40007EFC1F3F7F1E1E3F3F1E3C3E070E3C3832
:104C50000F1E3C383F1E3E3E7FFE1F3F7EFC0F3F37
:104C6000F8F88F07F0F08307783A803C1D7C0FFC42
:104C70000F4C1B07F0581EE03FFF01C06411196C78
:104C80002974B132819A25A814023A033202B62D52
:104C900037414B553217320ADA68105A35088132DB
:084CA0003132105A2004016CAE
:04000005080000ED02
:00000001FF
